S0190000776179706F696E744E6176696761746F722E73726563E5
S113000005C1000024C1000022C1000020C100007D
S11300101EC100001CC100001AC1000018C100006C
S113002016C10000B9C7000012C1000010C10000D1
S11300300EC100000CC100000AC1000008C100008C
S113004006C1000004C1000002C1000000C100009C
S1130050FEC00000FCC00000FAC000000C94CC08F4
S1130060F6C00000F4C00000F2C00000F0C00000C0
S1130070EEC00000ECC00000EAC00000E8C00000D0
S1130080E6C00000E4C00000E2C00000E0C00000E0
S1130090DEC00000DCC00000DAC00000D8C00000F0
S11300A0D6C00000D4C00000D2C00000D0C0000000
S11300B0CEC00000CCC00000CAC00000C8C0000010
S11300C0C6C00000C4C00000C2C00000C0C0000020
S11300D0BEC00000BCC00000BAC00000B8C0000030
S11300E0B6C00000084AD73B3BCE016E84BCBFFDBE
S11300F0C12F3D6C74319ABD56833DDA3D00C77FF4
S113010011BED9E4BB4C3E916BAAAABE000000808C
S11301103F0000407A10F35A00A0724E18090010F4
S1130120A5D4E80000E87648170000E40B54020068
S113013000CA9A3B000000E1F50500008096980093
S1130140000040420F000000A086010000001027BC
S113015000000000E803000000006400000000004C
S11301600A00000000000100000000002C76D8887E
S1130170DC674F0823DFC1DFAE59E1B1B796E5E391
S1130180E453C63AE651997696E8E6C28426EB89AA
S11301908C9B62ED407C6FFCEFBC9C9F40F2BAA547
S11301A06FA5F490055A2AF75C936B6CF9676DC1DF
S11301B01BFCE0E40D47FEF520E6B500D0ED902EE3
S11301C00300943577050080841E080000204E0A41
S11301D0000000C80C333333330F986E128311417F
S11301E0EF8D2114893BE65516CFFEE6DB18D1844A
S11301F04B381BF77C1D901DA4BBE4242032847271
S11302005E228100C9F124ECA1E53D2711241FBE23
S1130210CFEFD1E2DEBFCDBF00E00CBF12E0A0E023
S1130220B2E0EAE9FFE100E00BBF02C007900D92E3
S1130230AA32B107D9F722E0AAE2B2E001C01D92C6
S1130240A538B207E1F70E94150A0C94CB0FD8CE5B
S113025000C000C000C000C000C000C0000008957D
S113026051985098599858980895519AF1DF1DC0A3
S11302700895509AEDDF5198EBDF5098E9DF519AD9
S1130280E7DF13C00895082E519AE2DF802D0DD0C8
S1130290882311F002D0F8CF0895509A519AD8DFEC
S11302A05098D6DF5198D4CF08950894881F01C080
S11302B0880F59F0509A18F40000519802C0519ACE
S11302C000C0C6DF5098C4DFF3CF509A5198C0DF06
S11302D05098489BFECF8827499981E0B9DF992738
S11302E00895882701C081E071E0509A5198B0DFE9
S11302F05098AEDF489BFECF889449990894771FA5
S1130300A0F7509A813011F0519801C0519AA0DFA2
S11303105098489BFECF9CDF872F99270895A0DF34
S113032025E32A95F1F700008FE39FE10197F1F7A8
S113033000C0000086EA9DDF81E3B7DF80E0B5DF1F
S113034086EA97DF8DE2B1DF80E0AFDF86EA91DFF6
S11303508DE2ABDF86E1A9DF86EA8BDF8DE2A5DFE4
S113036088E0A3DF86EA85DF8EE29FDF80E89DDFF9
S11303709FEF29EF80E0915020408040E1F700C0DA
S113038000008BCF089586EA7EDF86EA72DF80E381
S11303908CDF87EA6EDFA5DF8823BCF708958F9290
S11303A09F92AF92BF92CF92DF92EF92FF920F9300
S11303B01F93CF93DF937C018B01EA01E4DF86EA8C
S11303C062DF82E372DF87EA54DF8BDFA82EB12C71
S11303D086EA4FDF83E369DF87EA4BDF82DFC82EDB
S11303E0D12CDC2CCC24CA0CDB1C86EA42DF84E34F
S11303F05CDF87EA3EDF75DFA82EB12C86EA39DFA1
S113040085E353DF87EA35DF6CDF882E912C982C47
S113041088248A0C9B1C86EA2CDF86E346DF87EA65
S113042028DF5FDFA82EB12C86EA23DF87E33DDFD8
S113043087EA1FDF56DF90E0982F8827A80EB91EA1
S11304402CDFB601882777FD8095982F0E948D0BAD
S113045020E030E040E85BE30E946D0CF70160832C
S1130460718382839383B401882777FD8095982FC5
S11304700E948D0B20E030E040E85BE30E946D0CAD
S1130480F8016083718382839383B501882777FDA4
S11304908095982F0E948D0B20E030E040E85BE3CC
S11304A00E946D0C688379838A839B838091000208
S11304B081118CC020E030E040E45FE360913202BF
S11304C07091330280913402909135020E946D0C38
S11304D04B015C0120E030E040E85EE3F70160811D
S11304E07181828193810E946D0C9B01AC01C501D5
S11304F0B401DFD7F70160837183828393836093B0
S1130500320270933302809334029093350220E0D8
S113051030E040E45FE360912E0270912F028091FD
S11305203002909131020E946D0C6B017C0120E03D
S113053030E040E85EE3F80160817181828193815B
S11305400E946D0C9B01AC01C701B601B2D7F80142
S1130550608371838283938360932E0270932F024E
S1130560809330029093310220E030E040E45FE376
S113057060912A0270912B0280912C0290912D029D
S11305800E946D0C6B017C0120E030E040E85EE3EA
S1130590688179818A819B810E946D0C9B01AC01E9
S11305A0C701B60186D7688379838A839B83888150
S11305B09981AA81BB8180932A0290932B02A093F4
S11305C02C02B0932D02109200021BC0F70180810F
S11305D09181A281B3818093320290933302A093DC
S11305E03402B0933502F80180819181A281B381F4
S11305F080932E0290932F02A0933002B093310285
S1130600D6CFDF91CF911F910F91FF90EF90DF90A4
S1130610CF90BF90AF909F908F9008958CE325DE8C
S113062080E043DE80E741DE38DE8CE31EDE81E0DD
S11306303CDE80EA3ADE31DE8CE317DE82E035DE32
S113064080E033DE2ACE0895CF92DF92EF92FF92BC
S11306508CE319DE83E029DE20DE8DE30ADE43DE4F
S113066010925002809351023EDE2091500230914C
S11306705102282B309351022093500234DE109201
S11306804C0280934D022FDE20914C0230914D029A
S1130690282B30934D0220934C0225DE10924E02FB
S11306A080934F021EDE20914E0230914F02A90129
S11306B0482BCA0190934F0280934E0260915002DE
S11306C0709151022091070230910802621B730B52
S11306D04091090250910A02649F9001659F300D78
S11306E0749F300D112430934502209344022091CD
S11306F0030230910402821B930B40910502509136
S11307000602849F9001859F300D949F300D112423
S11307103093430220934202C0DD60914402709101
S11307204502882777FD8095982FF7D76B017C01C8
S11307306091420270914302882777FD8095982F3B
S1130740ECD7A701960128D76B017C0120E030E0AB
S1130750A90175D788234CF42BED3FE049EC50E414
S1130760C701B601A6D66B017C012BED3FE049EC35
S113077050E4C701B6010E94620C18164CF42BED2C
S11307803FE049EC50E4C701B60192D66B017C010D
S113079020E030E044E353E4C701B6010E946D0C4D
S11307A02BED3FE049E450E44ED7FF90EF90DF900B
S11307B0CF9008954F925F926F927F928F929F9203
S11307C0AF92BF92CF92DF92EF92FF920F931F935B
S11307D0CF93DF93009729F46115710509F48CC058
S11307E006C0811520E8920711F481E090E86115B4
S11307F040E8740711F461E070E899233CF49195A2
S11308008195910988248A94982C03C08824839420
S1130810912C9B01772324F422273327261B370BA3
S1130820811540E4940784F4211540E4340764F40A
S1130830880F991F220F331F811540E4940724F475
S1130840211540E43407A4F3889F6001899FD00CEC
S1130850D00C1124EE24D7FCE094FE2C229F20011E
S1130860239F500C500C1124662457FC6094762C62
S11308704C0C5D1C6E1C7F1C032E3FE07694679429
S1130880579447943A95D1F7302D0FE010E0C0E02B
S1130890D0E4A12CB12CF501EC0FFD1FEE9FC0019B
S11308A0EF9F900D900D1124AA2797FDA095BA2FC4
S11308B09C01AD01012E1FE056954795379527956C
S11308C01A95D1F7102DC301B2010E94D30CC6169C
S11308D0D706E806F90608F05F01D595C7950150DB
S11308E0110901151105B9F6A89CC001A99C900D28
S11308F0B89C900D112405C061E070E081E090E0A7
S113090076CFDF91CF911F910F91FF90EF90DF9001
S1130910CF90BF90AF909F908F907F906F905F909B
S11309204F900895CF93DF93611520E4720784F408
S1130930811520E4920764F4660F771F880F991FCE
S1130940611520E4720724F4811520E49207A4F3CE
S1130950C0910102D091020220E030E4A0E0B0E0B6
S1130960AD01420F531F469FF001479FF00D569F64
S1130970F00D1124FF0FEE0BFE2F8E179F070CF0C6
S1130980DA01359527952C173D0750F7CD01DF91F6
S1130990CF9108954F925F926F927F928F929F9220
S11309A0AF92BF92CF92DF92EF92FF920F931F9379
S11309B0CF93DF938C01EB01209731F4009709F07A
S11309C083C080E090E082C06817790714F0AADF42
S11309D003C0BC01CE01A6DF6C01EE24D7FCE09479
S11309E0FE2CA5E4B6E1A70196010E94040D2B019B
S11309F03C01689414F8F594E794D794C79416943A
S1130A00D1F7A7019601C701B601CDD7CCD74B01C9
S1130A105C019B01AC01012E1FE05595479537956C
S1130A2027951A95D1F7102DA3E9B9EFF9D7460EFA
S1130A30571E681E791EC501B401052E54E1959513
S1130A408795779567955A95D1F7502DA70196010B
S1130A50AAD7A9D79B01AC01012E1FE05595479554
S1130A60379527951A95D1F7102DAEEBB1E0CCD779
S1130A70460E571E681E791ED301C201072E7FE061
S1130A80B595A795979587957A95D1F7702DC01749
S1130A90D10754F428E233E2A901481B590BCA01D7
S1130AA0AA2797FDA095BA2FBB231CF480E090E001
S1130AB0DC01893253E29507A105B1053CF088E2D7
S1130AC093E2A0E0B0E002C088E293E2DF91CF912C
S1130AD01F910F91FF90EF90DF90CF90BF90AF9058
S1130AE09F908F907F906F905F904F9008956115C5
S1130AF020E87207B9F1811540E8940769F177237A
S1130B0024F099237CF046CF089599238CF07195B5
S1130B10619571093FDF20E536E4A901481B590BB3
S1130B20CA010895161617061CF40CC081E090E85B
S1130B307195619571099195819591092BDF805586
S1130B409644089591958195910924DF9195819515
S1130B509109089561E070E8161617063CF781E0E4
S1130B6090E8F0CF811550E89507A1F361E070E8B3
S1130B70CCCF4F925F926F927F928F929F92AF925F
S1130B80BF92CF92DF92EF92FF920F931F93CF9376
S1130B90DF938CE378DB83E088DB7FDB8DE369DB49
S1130BA0A2DB10925002809351029DDB20915002EF
S1130BB030915102282B309351022093500293DB41
S1130BC010924C0280934D028EDB20914C023091A6
S1130BD04D02282B30934D0220934C0284DB10925B
S1130BE04E0280934F027DDB80904E0290904F0224
S1130BF0882A90924F0280924E0240905002509068
S1130C00510260904C0270904D02C0914602D09106
S1130C1047020091480210914902BE01C80167DFF2
S1130C209093410280934002BE01C801C3DD6C0170
S1130C30B801CE01BFDD889E5001899EB00C989EFC
S1130C40B00C11246C9C90016D9C300D7C9C300D7B
S1130C501124A21AB30ABB0CAA08BA2CB092390206
S1130C60A09238028C9C70018D9CF00C9C9CF00C22
S1130C701124689E9001699E300D789E300D1124D8
S1130C80E20EF31EFF0CEE08FE2CF0924D02E092F1
S1130C904C020C9DA0010D9D500D1C9D500D112466
S1130CA0C89F9001C99F300DD89F300D1124CA01EF
S1130CB0820F931FD92EDD0CDD08D0924602D0920C
S1130CC04702C0914A02D0914B026D2D7D2D882799
S1130CD099278C1B9D0B0BDF893223E292072CF49E
S1130CE090933F0280933E0209C020E536E4A901B7
S1130CF0481B590B50933F0240933E0220913E0201
S1130D0030913F02283D5CED35074CF480EB99EBC4
S1130D10AC01421B530B50933F0240933E026D2D96
S1130D207D2DCE0147DD00271127081B190BBE01BD
S1130D308D2D9D2D3FDD99231CF49195819591096D
S1130D40489EA001499E500D589E500D1124E09ECE
S1130D509001E19E300DF09E300D1124240F351FBB
S1130D60732F770F770B70933A0270933B02409E78
S1130D709001419E300D509E300D11248E9DA00196
S1130D808F9D500D9E9D500D1124CA01821B930B03
S1130D90892F880F880B8093360280933702672F40
S1130DA0882799278A199B09A2DE90933D02809394
S1130DB03C02DF91CF911F910F91FF90EF90DF9054
S1130DC0CF90BF90AF909F908F907F906F905F90E7
S1130DD04F900895BC0180E090E0DAC20895BC0110
S1130DE080E090E0D5D26BE072E080E090E0D0C289
S1130DF00895CF93DF93CDB7DEB760970FB6F8941D
S1130E00DEBF0FBECDBF40E1BE016F5F7F4F3BD65B
S1130E10CE010196DFDF60960FB6F894DEBF0FBEF9
S1130E20CDBFDF91CF9108950F931F93CF93DF939D
S1130E30CDB7DEB764970FB6F894DEBF0FBECDBF53
S1130E408E010F5F1F4F25E04AE0FDD5C801C2DFC8
S1130E5064960FB6F894DEBF0FBECDBFDF91CF917D
S1130E601F910F9108952F9A2FEF80E792E0215060
S1130E7080409040E1F700C000002F9808952F9A19
S1130E802FEF84E39CE0215080409040E1F700C0C4
S1130E9000002F9808959093A9008093A800BC01A6
S1130EA0882777FD8095982F38D4609352027093E9
S1130EB05302809354029093550208958F929F9207
S1130EC0AF92BF92CF92DF92EF92FF920F931F9354
S1130ED0CF93DF938FEF809301018DB98FE39CE96A
S1130EE09093A7008093A60038EA3093A00022E1F3
S1130EF02093A100909397008093960030939000E4
S1130F0020939100C6EBD3E0D093A900C093A8002E
S1130F100F2EFAEA8F2E912CF02DF401D183C08389
S1130F200F2EFCEAAF2EB12CF02DF501D183C08336
S1130F300F2EF8E9CF2ED12CF02DF601D183C083EA
S1130F400F2EFAE9EF2EF12CF02DF701D183C08397
S1130F500CE910E0F801D183C08386EB93E09BDFBA
S1130F60F401D183C083F501D183C083F601D18319
S1130F70C083F701D183C083F801D183C083DF919B
S1130F80CF911F910F91FF90EF90DF90CF90BF9082
S1130F90AF909F908F9008951F920F920FB60F926B
S1130FA011240BB60F922F933F934F935F936F933C
S1130FB07F938F939F93AF93BF93CF93EF93FF93BD
S1130FC083B1C0915602C82783B180935602C0FFF3
S1130FD01CC0189B0AC02AD160936B0270936C02E8
S1130FE080936D0290936E0210C020D120916B0209
S1130FF030916C02621B730B70937B0260937A02D4
S113100080916F02816080936F02C1FF1CC0199BA5
S11310100AC00CD1609367027093680280936902DE
S113102090936A0210C002D1209167023091680245
S1131030621B730B709379026093780280916F0244
S1131040826080936F02C2FF1CC01A9B0AC0EED05C
S113105060936302709364028093650290936602C6
S113106010C0E4D02091630230916402621B730BC0
S1131070709377026093760280916F02846080930C
S11310806F02C3FF1CC01B9B0AC0D0D060935F02D9
S113109070936002809361029093620210C0C6D084
S11310A020915F0230916002621B730B7093750292
S11310B06093740280916F02886080936F02C4FF12
S11310C01CC01C9B0AC0B2D060935B0270935C028C
S11310D080935D0290935E0210C0A8D020915B02C1
S11310E030915C02621B730B709373026093720203
S11310F080916F02806180936F02C5FF1CC01D9BAD
S11311000AC094D060935702709358028093590296
S113111090935A0210C08AD02091570230915802FD
S1131120621B730B709371026093700280916F0263
S1131130806280936F02FF91EF91CF91BF91AF9145
S11311409F918F917F916F915F914F913F912F91DB
S11311500F900BBE0F900FBE0F901F90189514B8F0
S1131160279AEBE6F0E08081816080838081826051
S11311708083808184608083808188608083808193
S113118080618083808180628083E8E6F0E08081F2
S113119081608083789408951F920F920FB60F9206
S11311A011242F933F938F939F93AF93BF93809179
S11311B07D0290917E02A0917F02B09180023091D5
S11311C07C0223E0230F2D3720F40196A11DB11DCD
S11311D005C026E8230F0296A11DB11D20937C02B1
S11311E080937D0290937E02A0937F02B09380024D
S11311F08091810290918202A0918302B091840235
S11312000196A11DB11D8093810290938202A09347
S11312108302B0938402BF91AF919F918F913F91CC
S11312202F910F900FBE0F901F9018953FB7F89411
S11312308091810290918202A0918302B0918402F4
S113124026B5A89B02C02F3FA9F43FBF7894BA2FBC
S1131250A92F982F8827820F911DA11DB11DBC01B4
S1131260CD01660F771F881F991F660F771F881F90
S1131270991F08950196A11DB11DE7CF81E08093C8
S11312806E0016BC83E085BD0895CF93DF93EC0117
S1131290CB01AA2797FDA095BA2F880F991FAA1FE3
S11312A0BB1F880F991FAA1FBB1F9C01AD01220FF2
S11312B0331F441F551F220F331F441F551F60E067
S11312C074E284EF90E07ED321503109209759F4E1
S11312D03093C5002093C40088E18093C10086E068
S11312E08093C20028C0C130D10559F43093CD0099
S11312F02093CC0088E18093C90086E08093CA00E3
S11313001AC0C230D10559F43093D5002093D400CB
S113131088E18093D10086E08093D2000CC02397AB
S113132051F4309335012093340188E180933101E5
S113133086E080933201DF91CF910895009741F4C4
S1131340E0ECF0E0808185FFFDCF6093C600089556
S11313508130910541F4E8ECF0E0808185FFFDCF18
S11313606093CE0008958230910541F4E0EDF0E001
S1131370808185FFFDCF6093D6000895039739F4EB
S1131380E0E3F1E0808185FFFDCF609336010895AD
S11313900F931F93CF93DF938C01EB016881662336
S11313A031F02196C801CADF69916111FBCFDF9149
S11313B0CF911F910F91089560E875E280E090E06D
S11313C064DF5CDFCCDE7ADD0E94300127D98EE059
S11313D092E005DD54DD2FEF84E39CE02150804052
S11313E09040E1F700C000003EDD2FEF84E39CE075
S11313F0215080409040E1F700C0000034DD2FEF21
S113140084E39CE0215080409040E1F700C000005C
S11314102ADD2FEF84E39CE0215080409040E1F7E7
S113142000C000002CDD81E00895CF93DF93CDB799
S1131430DEB72C970FB6F894DEBF0FBECDBFBCDF6E
S11314400E948F012FEF89E698E12150804090405F
S1131450E1F700C00000AE014F5F5F4FBE016B5F5C
S11314607F4FCE0109960E94CF0169857A858B85CD
S11314709C85DADC88E292E0ADDC6D817E818F812F
S11314809885D2DC88E292E0A5DC69817A818B813F
S11314909C81CADC88E292E09DDCD6D8C5DC88E277
S11314A092E098DC66DBA5DC89E292E098DCCACFA6
S11314B05058BB27AA270ED0CBC1BCD130F0C1D124
S11314C020F031F49F3F11F41EF48CC10EF4E0952A
S11314D0E7FB82C1E92FCDD180F3BA176207730706
S11314E08407950718F071F49EF5E5C10EF4E095B4
S11314F00B2EBA2FA02D0B01B90190010C01CA01CA
S1131500A0011124FF27591B99F0593F50F4503E74
S113151068F11A16F040A22F232F342F4427585F66
S1131520F3CF469537952795A795F0405395C9F77E
S11315307EF41F16BA0B620B730B840BBAF0915036
S1131540A1F0FF0FBB1F661F771F881FC2F70EC0D5
S1131550BA0F621F731F841F48F4879577956795A8
S1131560B795F7959E3F08F0B3CF9395880F08F091
S11315709927EE0F9795879508955CD158F080E8E8
S113158091E009F49EEF5DD128F040E851E059F470
S11315905EEF09C027C18FC1E92FE0786AD168F3F3
S11315A0092E052AC1F3261737074807590738F0CB
S11315B00E2E07F8E02569F0E025E0640AC0EF6329
S11315C007F8009407FADB01B9019D01DC01CA01A7
S11315D0AD01EF9347D03CD10AD05F91552331F050
S11315E02BED3FE049E450FD49EC63CF0895DF93D0
S11315F0DD27B92FBF7740E85FE3161617064807C3
S11316005B0710F4D92F62D19F938F937F936F93CD
S1131610C7D1E4EEF0E0E9D01BD12F913F914F9177
S11316205F9167D1DD2349F09058A2EA2AED3FE0AB
S113163049EC5FE3D0785D274DDFDF9109C1A8D085
S113164008F481E008950CD003C1FBD040F0F2D03F
S113165030F021F45F3F19F0BFC051112DC1C2C059
S113166008D198F39923C9F35523B1F3951B550B6E
S1131670BB27AA2762177307840738F09F5F5F4F61
S1131680220F331F441FAA1FA9F333D00E2E3AF0A2
S1131690E0E830D091505040E695001CCAF729D0BC
S11316A0FE2F27D0660F771F881FBB1F261737070B
S11316B04807AB07B0E809F0BB0B802DBF01FF273B
S11316C093585F4F2AF09E3F510568F085C0F4C0DF
S11316D05F3FECF3983EDCF3869577956795B79575
S11316E0F7959F5FC9F7880F911D9695879597F990
S11316F00895E1E0660F771F881FBB1F6217730709
S11317008407BA0720F0621B730B840BBA0BEE1F1D
S113171088F7E0950895E89409C097FB3EF4909506
S11317208095709561957F4F8F4F9F4F9923A9F0B6
S1131730F92F96E9BB279395F69587957795679545
S1131740B795F111F8CFFAF4BB0F11F460FF1BC089
S11317506F5F7F4F8F4F9F4F16C0882311F096E91C
S113176011C0772321F09EE8872F762F05C06623CA
S113177071F096E8862F70E060E02AF09A95660F83
S1131780771F881FDAF7880F9695879597F908953C
S1131790990F0008550FAA0BE0E8FEEF161617067E
S11317A0E807F907C0F012161306E407F50798F0E6
S11317B0621B730B840B950B39F40A2661F0232BFF
S11317C0242B252B21F408950A2609F4A140A6957B
S11317D08FEF811D811D089597F99F6780E870E060
S11317E060E008959FEF80EC0895DF93CF931F93FB
S11317F00F93FF92EF92DF927B018C01689405C0F6
S1131800DA2EEF0176D0FE01E894A5912591359169
S113181045915591AEF3EF015DDEFE019701A801FC
S1131820DA9479F7DF90EF90FF900F911F91CF91A9
S1131830DF91089500240A9416161706180609065F
S1131840089500240A941216130614060506089532
S1131850092E0394000C11F4882352F0BB0F40F4BA
S1131860BF2B11F460FF04C06F5F7F4F8F4F9F4FFA
S1131870089557FD9058440F551F59F05F3F71F07C
S11318804795880F97FB991F61F09F3F79F08795E3
S11318900895121613061406551FF2CF4695F1DF6C
S11318A008C0161617061806991FF1CF86957105FC
S11318B0610508940895E894BB2766277727CB0130
S11318C097F9089565DF08F48FEF08959B01AC0143
S11318D060E070E080E89FE3B6CE0BD0B9CFAADF1A
S11318E028F0AFDF18F0952309F076CF7BCF1124D1
S11318F0E3CFBFDFA0F3959FD1F3950F50E0551FC1
S1131900629FF001729FBB27F00DB11D639FAA2750
S1131910F00DB11DAA1F649F6627B00DA11D661F9F
S1131920829F2227B00DA11D621F739FB00DA11DC0
S1131930621F839FA00D611D221F749F3327A00D7A
S1131940611D231F849F600D211D822F762F6A2F16
S113195011249F5750408AF0E1F088234AF0EE0F9B
S1131960FF1FBB1F661F771F881F91505040A9F7A8
S11319709E3F510570F030CF9FCF5F3FECF3983E10
S1131980DCF3869577956795B795F795E7959F5F0F
S1131990C1F7FE2B880F911D9695879597F90895A9
S11319A09B01AC019ACFDB018F939F932DD0BF9104
S11319B0AF91A29F800D911DA39F900DB29F900D9A
S11319C011240895A1E21A2EAA1BBB1BFD010DC010
S11319D0AA1FBB1FEE1FFF1FA217B307E407F507DB
S11319E020F0A21BB30BE40BF50B661F771F881FB7
S11319F0991F1A9469F760957095809590959B014D
S1131A00AC01BD01CF0108950FD0A59F900DB49FE7
S1131A10900DA49F800D911D11240895B7FFF4CF5C
S1131A20F3DF821B930B0895A29FB001B39FC00103
S1131A30A39F700D811D1124911DB29F700D811DF6
S1131A401124911D0895EF920F931F93CF93DF9369
S1131A50E80147FF02C034E101C034E0E42FFF276E
S1131A60E7FDF095F7FF03C0F195E195F109E32E49
S1131A70022F2E2FAE012AD0CE01DF91CF911F91DC
S1131A800F91EF900895BB274A3031F4992322F443
S1131A90BDE2909581959F4F01C0BB27FB0155275F
S1131AA0AA27880F991FAA1FA41710F0A41B8395B7
S1131AB05051B9F7A05DAA3308F0A95DA19300972E
S1131AC079F7B111B1931192CB0155C26F927F9204
S1131AD09F92AF92BF92CF92DF92EF92FF920F93B9
S1131AE01F93CF93DF93CDB7DEB729970FB6F89442
S1131AF0DEBF0FBECDBF6A01B22E102F0C3320F40F
S1131B00FF24F394F00E02C04CE3F42E0F2D27E0D3
S1131B10AE014F5F5F4F57D17981272F2970213054
S1131B2031F0E1FC06C0E0FC06C060E005C06DE2F7
S1131B3003C06BE201C060E2AE2DA07173FF36C03A
S1131B40662311F084E001C083E08B1510F4B81A09
S1131B5001C0B12CA1110BC0F6018B2D90E288239A
S1131B6019F091938150FBCFCB0CD11CB12C66237F
S1131B7031F0F601608396012F5F3F4F6901C60182
S1131B800396E2FE05C02EE4F601208331E404C08E
S1131B902EE6F601208331E631832283FC012B2DCE
S1131BA030E22223F1F131932150FBCF72FF40C088
S1131BB0662311F084E001C083E08B1510F4B81A99
S1131BC001C0B12CA1110BC0F6018B2D90E288232A
S1131BD019F091938150FBCFCB0CD11CB12C66230F
S1131BE031F0F601608396012F5F3F4F6901C60112
S1131BF00396E2FE07C029E4F60120832EE4218344
S1131C0026E406C029E6F60120832EE6218326E693
S1131C102283FC012B2D30E2222319F03193215031
S1131C20FBCFFC01EB0DF11D10828EEF9FEFB7C0CF
S1131C30B1E0611101C0B0E04B2F50E01816190655
S1131C4024F49C012F5F3F4F02C021E030E0240FB9
S1131C50351F112329F0412F50E04F5F5F4F02C021
S1131C6040E050E0420F531F2B2D30E04217530742
S1131C7014F4B41A01C0B12C2E2D287159F4F601B4
S1131C802B2D30E2222319F031932150FBCFCB0CC2
S1131C90D11CB12CBB2331F0F601608396012F5F78
S1131CA03F4F6901A1110BC0F6012B2D30E3222314
S1131CB019F031932150FBCFCB0CD11CB12CF80E71
S1131CC00A81372F3071A32E74FF03C0013309F446
S1131CD0FA941F142CF42F2D293018F028E001C099
S1131CE021E0682F392F97FF02C060E030E0462FD3
S1131CF0532F612C712C3EE2932EBC01621B71099F
S1131D009B01DC01A41BB50BE1E0F0E0EC0FFD1F2F
S1131D10AE0FBF1FE12EF12CF194E194F1084F3F77
S1131D20FFEF5F0731F4F6019082B6016F5F7F4FDA
S1131D306B01841795074CF02417350734F4BD0163
S1131D40660D771DFB01118101C010E3415051095B
S1131D50FFEF6F1A7F0AB6016F5F7F4F4E155F0565
S1131D6024F0F60110836B01DACF4817590739F4D0
S1131D70063320F4053319F4A11001C011E3F60170
S1131D801083FB018B2D90E2882319F091938150ED
S1131D90FBCFFB01EB0DF11D108280E090E0299652
S1131DA00FB6F894DEBF0FBECDBFDF91CF911F9168
S1131DB00F91FF90EF90DF90CF90BF90AF909F90E6
S1131DC07F906F900895283008F027E03327DA01D8
S1131DD0990F311D87FD916000966105710539F4F5
S1131DE032602E5F3D9330E32A95E1F708959F3FDB
S1131DF030F080387105610509F03C5F3C5F3D932C
S1131E00913008F08068911DDF93CF931F930F9357
S1131E10FF92EF92192F987F9695E92F96959695B4
S1131E20E90FFF27E459FE4F99273327EE24FF24B7
S1131E30A701E70105900894079428F4360FE71EDC
S1131E40F81E491F511D660F771F881F991F06949E
S1131E50A1F70590079428F4E70EF81E491F561FB2
S1131E60C11D770F881F991F661F0694A1F705905F
S1131E70079428F4F80E491F561FC71FD11D880F59
S1131E80991F661F771F0694A1F70590079420F405
S1131E90490F561FC71FD81F990F661F771F881F2A
S1131EA00694A9F784911095177041F0D695C795BB
S1131EB057954795F794E7941A95C1F7E2E1F1E055
S1131EC068941590159135916591959105907FE2EF
S1131ED07395E118F10A430B560BC90BD009C0F7EF
S1131EE0E10CF11E431F561FC91FD01D7EF4703331
S1131EF011F48A95E6CFE894015030F0080F0AF403
S1131F000027021708F4202F2395022F7A3328F094
S1131F1079E37D932A95E9F710C07D932A9589F694
S1131F20069497956795379517951794E118F10AD4
S1131F30430B560BC90BD00998F023957E917395EA
S1131F407A3308F070E37C932013B8F77E917061C4
S1131F507D9330F0839571E37D9370E32A95E1F7E7
S1131F601124EF90FF900F911F91CF91DF9199274A
S1131F7087FD90950895DC01FC01672F719177230B
S1131F80E1F7329704C07C916D9370836291AE1730
S10D1F90BF07C8F30895F894FFCFCB
S1131F9A01010077FF01000D0001000A0D00496EDE
S1131FAA697469616C697A6174696F6E20737563A7
S10D1FBA6365656465642100090095
S9030000FC
