:10000000EEC000000CC100000AC1000008C10000E1
:1000100006C1000004C1000002C1000000C10000D0
:10002000FEC000007AC30000FAC00000F8C0000063
:10003000F6C00000F4C00000F2C00000F0C00000F4
:10004000EEC00000ECC00000EAC00000E8C0000004
:10005000E6C00000E4C00000E2C000004AC50000A5
:10006000DEC00000DCC00000DAC00000D8C0000024
:10007000D6C00000D4C00000D2C00000D0C0000034
:10008000CEC00000CCC00000CAC00000C8C0000044
:10009000C6C00000C4C00000C2C00000C0C0000054
:1000A000BEC00000BCC00000BAC00000B8C0000064
:1000B000B6C00000B4C00000B2C00000B0C0000074
:1000C000AEC00000ACC00000AAC00000A8C0000084
:1000D000A6C00000A4C00000A2C00000A0C0000094
:1000E0009EC0000000407A10F35A00A0724E18091A
:1000F0000010A5D4E80000E87648170000E40B548F
:10010000020000CA9A3B000000E1F505000080965D
:100110009800000040420F000000A086010000008F
:10012000102700000000E803000000006400000049
:1001300000000A00000000000100000000002C7612
:10014000D888DC674F0823DFC1DFAE59E1B1B7962D
:10015000E5E3E453C63AE651997696E8E6C284268A
:10016000EB898C9B62ED407C6FFCEFBC9C9F40F266
:10017000BAA56FA5F490055A2AF75C936B6CF967E2
:100180006DC11BFCE0E40D47FEF520E6B500D0EDA7
:10019000902E0300943577050080841E080000200F
:1001A0004E0A000000C80C333333330F986E1283AD
:1001B0001141EF8D2114893BE65516CFFEE6DB1881
:1001C000D1844B381BF77C1D901DA4BBE424203246
:1001D00084725E228100C9F124ECA1E53D2711243F
:1001E0001FBECFEFD1E2DEBFCDBF00E00CBF12E0FB
:1001F000A0E0B2E0E0E6F7E100E00BBF02C007904C
:100200000D92A23FB107D9F723E0A2EFB2E001C0FF
:100210001D92A634B207E1F7BBD50C94AE0BF0CE1D
:1002200000C000C000C000C000C000C000000895B1
:1002300051985098599858980895519AF1DF1DC0D7
:100240000895509AEDDF5198EBDF5098E9DF519A0D
:10025000E7DF13C00895082E519AE2DF802D0DD0FC
:10026000882311F002D0F8CF0895509A519AD8DF20
:100270005098D6DF5198D4CF08950894881F01C0B4
:10028000880F59F0509A18F40000519802C0519A02
:1002900000C0C6DF5098C4DFF3CF509A5198C0DF3A
:1002A0005098489BFECF8827499981E0B9DF99276C
:1002B0000895882701C081E071E0509A5198B0DF1D
:1002C0005098AEDF489BFECF889449990894771FD9
:1002D000A0F7509A813011F0519801C0519AA0DFD7
:1002E0005098489BFECF9CDF872F992708956091F7
:1002F000F2027091F3028091F4029091F502089558
:1003000080ECA9DF83E1B9DF87E0B7CF0895CF9311
:10031000C82F80EC96DF8C2FB0DF81EC92DFC9DF35
:10032000CF910895CF93DF93D82FC62F80EC93DF22
:100330008D2FA3DF8C2FA1DF98DFDF91CF91089560
:1003400086E2E5DF682F6D7F86E2ECDF86E2DFDFA5
:10035000682F626086E2E6CF0895CF92DF92EF9237
:10036000FF92CF93DF93ECDFC9E5D2E00AC021977B
:10037000209709F44BC08FE99FE00197F1F700C087
:10038000000080E0C4DF81FFF2CF80EC64DF81E019
:1003900074DF81EC56DF8FDFF82E8DDFD82F89DFF9
:1003A000C82F63DFCDDF4F2D552747FD5095742FA4
:1003B00066272D2F332727FD3095622B732B882737
:1003C00077FD8095982F1CD66B017C016C2F7727C9
:1003D00067FD7095759567957595679575956795A2
:1003E00075956795882777FD8095982F09D620E029
:1003F00030E040E85DE3B8D69B01AC01C701B6012F
:10040000FCD4562F472F382F292F04C050E040EC42
:1004100039E724EC652F742F832F922FDF91CF9132
:10042000FF90EF90DF90CF900895CF92DF92EF9200
:10043000FF92CF93DF9380E092E07DD0C0E0D0E0E8
:10044000C12CD12C760109C088DF9B01AC01C7010A
:10045000B601D3D46B017C01219695D3683E7340DD
:10046000810591058CF3BE01882777FD8095982F33
:10047000C7D59B01AC01C701B60127D56B017C0133
:1004800087E392E053D0C701B6015FD088E592E0E0
:1004900052D0C701B601DF91CF91FF90EF90DF906E
:1004A000CF90089586E233DF682F606886E23ACF06
:1004B0000895CF93C82F883008F0C7E086E227DF81
:1004C000877CCC0FCC0FCC0F682F6C2B86E22ADFF9
:1004D000CF910895ADDE8CE01ADF843CC1F48BE54A
:1004E00092E029D0DFDF87E0E4DF0ADF9EDF609360
:1004F000F2027093F3028093F4029093F50220E0ED
:1005000030EC49E754ECDDD4882359F005C08AE784
:1005100092E011D080E0089583E992E00CD081E070
:10052000089584EB92E007D080E00895BC0180E05C
:1005300090E0E8C30895BC0180E090E0E3D364ED6F
:1005400072E080E090E0DEC308950F931F93CF9395
:10055000DF93CDB7DEB764970FB6F894DEBF0FBE5A
:10056000CDBF8E010F5F1F4F25E04AE082D6C80144
:10057000DDDF64960FB6F894DEBF0FBECDBFDF910E
:10058000CF911F910F9108959093A9008093A80097
:10059000BC01882777FD8095982F32D56093F602AD
:1005A0007093F7028093F8029093F90208958F9266
:1005B0009F92AF92BF92CF92DF92EF92FF920F93F2
:1005C0001F93CF93DF938FEF809301018DB98FE35A
:1005D0009CE99093A7008093A60038EA3093A0008E
:1005E00022E12093A100909397008093960030938E
:1005F000900020939100C6EBD3E0D093A900C09364
:10060000A8000F2EFAEA8F2E912CF02DF401D18341
:10061000C0830F2EFCEAAF2EB12CF02DF501D18353
:10062000C0830F2EF8E9CF2ED12CF02DF601D18307
:10063000C0830F2EFAE9EF2EF12CF02DF701D183B4
:10064000C0830CE910E0F801D183C08386EB93E00E
:100650009BDFF401D183C083F501D183C083F60110
:10066000D183C083F701D183C083F801D183C083D4
:10067000DF91CF911F910F91FF90EF90DF90CF907E
:10068000BF90AF909F908F900895EF920F931F931C
:10069000CF93DF93162FD42FC22F882311F0FCD1D4
:1006A00073DF112331F0FDD178D47093AB006093E8
:1006B000AA00DD2331F0FDD170D47093AD006093BA
:1006C000AC00CC2331F0FDD168D4709399006093D5
:1006D0009800002331F0FDD160D470939B006093AB
:1006E0009A00EE2031F0FDD158D470939D006093B4
:1006F0009C00DF91CF911F910F91EF9008959093FF
:100700009D0080939C0008956091F6027091F7021D
:100710008091F8029091F90208951F920F920FB6FE
:100720000F9211240BB60F922F933F934F935F9329
:100730006F937F938F939F93AF93BF93CF93EF93D9
:10074000FF9383B1C0910703C82783B18093070348
:10075000C0FF1CC0189B0AC023D26093280370936B
:10076000290380932A0390932B0310C019D2209160
:10077000280330912903621B730B70933803609335
:10078000370380912C03816080932C03C1FF1CC030
:10079000199B0AC005D260932403709325038093AC
:1007A00026039093270310C0FBD12091240330919E
:1007B0002503621B730B709336036093350380919E
:1007C0002C03826080932C03C2FF1CC01A9B0AC0BA
:1007D000E7D16093200370932103809322039093C9
:1007E000230310C0DDD12091200330912103621B2F
:1007F000730B709334036093330380912C038460F4
:1008000080932C03C3FF1CC01B9B0AC0C9D16093FB
:100810001C0370931D0380931E0390931F0310C04D
:10082000BFD120911C0330911D03621B730B709389
:1008300032036093310380912C03886080932C03F2
:10084000C4FF1CC01C9B0AC0ABD1609318037093FB
:10085000190380931A0390931B0310C0A1D1209118
:10086000180330911903621B730B7093300360936C
:100870002F0380912C03806180932C03C5FF1CC043
:100880001D9B0AC08DD16093140370931503809350
:1008900016039093170310C083D120911403309155
:1008A0001503621B730B70932E0360932D038091CD
:1008B0002C03806280932C03FF91EF91CF91BF9125
:1008C000AF919F918F917F916F915F914F913F91E8
:1008D0002F910F900BBE0F900FBE0F901F90189589
:1008E000EBE6F0E08081816080838081826080839C
:1008F0008081846080838081886080838081806142
:100900008083808180628083E8E6F0E0808181607E
:1009100080837894089580912C03882309F444C03F
:10092000F89420912C032093060320FF08C08091A7
:10093000370390913803909305038093040321FFBC
:1009400008C0809135039091360390930303809300
:10095000020322FF08C080913303909134039093E7
:1009600001038093000323FF08C08091310390911D
:1009700032039093FF028093FE0224FF08C080910F
:100980002F03909130039093FD028093FC0225FF8A
:1009900008C080912D0390912E039093FB028093C9
:1009A000FA0210922C03789480910603882309F4AC
:1009B00072C06091040370910503709313036093F8
:1009C000120380910203909103039093110380938B
:1009D0001003809100039091010390930F03809383
:1009E0000E038091FE029091FF0290930D0380937D
:1009F0000C038091FC029091FD0290930B03809375
:100A00000A038091FA029091FB029093090380936C
:100A10000803882777FD8095982FF2D296DD87ED21
:100A200092E084DD609110037091110380E090E00A
:100A3000E5D28BDD87ED92E079DD60910E03709158
:100A40000F0380E090E0DAD280DD87ED92E06EDD8A
:100A500060910C0370910D0380E090E0CFD275DDC2
:100A600087ED92E063DD60910A0370910B0380E0F3
:100A700090E0C4D26ADD87ED92E058DD6091080312
:100A80007091090380E090E0B9D25FDD84ED92E0DF
:100A90004DDD109206030895809112039091130387
:100AA0000895609110037091110380E090E0A6C258
:100AB000089560910E0370910F0380E090E09EC254
:100AC000089560910C0370910D0380E090E096C250
:100AD000089560910A0370910B0380E090E08EC24C
:100AE0000895609108037091090380E090E086C248
:100AF00008951F920F920FB60F9211242F933F93D8
:100B00008F939F93AF93BF9380913A0390913B0350
:100B1000A0913C03B0913D033091390323E0230FB2
:100B20002D3720F40196A11DB11D05C026E8230F25
:100B30000296A11DB11D2093390380933A0390932F
:100B40003B03A0933C03B0933D0380913E039091FF
:100B50003F03A0914003B09141030196A11DB11D37
:100B600080933E0390933F03A0934003B0934103CF
:100B7000BF91AF919F918F913F912F910F900FBE99
:100B80000F901F9018952FB7F89460913A037091C9
:100B90003B0380913C0390913D032FBF78940895CF
:100BA0003FB7F89480913E0390913F03A09140039A
:100BB000B091410326B5A89B02C02F3FA9F43FBFC7
:100BC0007894BA2FA92F982F8827820F911DA11DE5
:100BD000B11DBC01CD01660F771F881F991F660FDD
:100BE000771F881F991F08950196A11DB11DE7CF9A
:100BF00081E080936E0016BC83E085BD0895CF939D
:100C0000DF93EC01CB01AA2797FDA095BA2F880F9F
:100C1000991FAA1FBB1F880F991FAA1FBB1F9C01EA
:100C2000AD01220F331F441F551F220F331F441FD6
:100C3000551F60E074E284EF90E0F9D22150310951
:100C4000209759F43093C5002093C40088E1809325
:100C5000C10086E08093C20028C0C130D10559F49C
:100C60003093CD002093CC0088E18093C90086E0CA
:100C70008093CA001AC0C230D10559F43093D50010
:100C80002093D40088E18093D10086E08093D20045
:100C90000CC0239751F4309335012093340188E13F
:100CA0008093310186E080933201DF91CF910895E6
:100CB000009741F4E0ECF0E0808185FFFDCF609388
:100CC000C60008958130910541F4E8ECF0E08081A0
:100CD00085FFFDCF6093CE0008958230910541F4E9
:100CE000E0EDF0E0808185FFFDCF6093D6000895B0
:100CF000039739F4E0E3F1E0808185FFFDCF609355
:100D0000360108950F931F93CF93DF938C01EB016E
:100D10006881662331F02196C801CADF69916111AB
:100D2000FBCFDF91CF911F910F91089560E875E29D
:100D300080E090E064DF5CDFD3DDCCDB38DC89ED84
:100D400092E0F9DB81E008958F929F92AF92BF927B
:100D5000CF92DF92EF92FF924B015C01D5DC6B01E9
:100D60007C01FBDA9B01AC01C501B40145D09B01BC
:100D7000AC01C701B60141D010D1CB0105DCFF9019
:100D8000EF90DF90CF90BF90AF909F908F9008959D
:100D9000CDDFADDA20E030E040EC5FE32ED06093B1
:100DA0004203709343038093440390934503B3DD60
:100DB00098DE20E030E046E954E4D2D118168CF4F5
:100DC00060914203709143038091440390914503E5
:100DD000BBDFE12C01E021E041E061E080E055DC97
:100DE00007C0E12C01E021E041E061E081E04DDC61
:100DF00088EE93E084DCDBCF5058BB27AA270ED0C7
:100E000075C166D130F06BD120F031F49F3F11F401
:100E10001EF45BC10EF4E095E7FB51C1E92F77D1D9
:100E200080F3BA17620773078407950718F071F407
:100E30009EF58FC10EF4E0950B2EBA2FA02D0B015D
:100E4000B90190010C01CA01A0011124FF27591B0F
:100E500099F0593F50F4503E68F11A16F040A22F15
:100E6000232F342F4427585FF3CF46953795279586
:100E7000A795F0405395C9F77EF41F16BA0B620B85
:100E8000730B840BBAF09150A1F0FF0FBB1F661FCC
:100E9000771F881FC2F70EC0BA0F621F731F841F0F
:100EA00048F4879577956795B795F7959E3F08F035
:100EB000B3CF9395880F08F09927EE0F97958795F4
:100EC0000895D9D008F481E008950CD00FC107D15E
:100ED00040F0FED030F021F45F3F19F0F0C0511126
:100EE00039C1F3C014D198F39923C9F35523B1F351
:100EF000951B550BBB27AA2762177307840738F089
:100F00009F5F5F4F220F331F441FAA1FA9F333D0E7
:100F10000E2E3AF0E0E830D091505040E695001C9B
:100F2000CAF729D0FE2F27D0660F771F881FBB1F57
:100F3000261737074807AB07B0E809F0BB0B802D31
:100F4000BF01FF2793585F4F2AF09E3F510568F07D
:100F5000B6C000C15F3FECF3983EDCF38695779511
:100F60006795B795F7959F5FC9F7880F911D96957F
:100F7000879597F90895E1E0660F771F881FBB1FDB
:100F8000621773078407BA0720F0621B730B840B88
:100F9000BA0BEE1F88F7E095089504D06894B1115C
:100FA000D9C00895BCD088F09F5790F0B92F9927E9
:100FB000B751A0F0D1F0660F771F881F991F1AF064
:100FC000BA95C9F712C0B13081F0C3D0B1E008952D
:100FD000C0C0672F782F8827B85F39F0B93FCCF3AE
:100FE000869577956795B395D9F73EF4909580955A
:100FF000709561957F4F8F4F9F4F0895E89409C07A
:1010000097FB3EF490958095709561957F4F8F4F3B
:101010009F4F9923A9F0F92F96E9BB279395F69551
:10102000879577956795B795F111F8CFFAF4BB0FCF
:1010300011F460FF1BC06F5F7F4F8F4F9F4F16C033
:10104000882311F096E911C0772321F09EE8872FBD
:10105000762F05C0662371F096E8862F70E060E079
:101060002AF09A95660F771F881FDAF7880F9695F2
:10107000879597F90895990F0008550FAA0BE0E896
:10108000FEEF16161706E807F907C0F0121613064A
:10109000E407F50798F0621B730B840B950B39F48A
:1010A0000A2661F0232B242B252B21F408950A26F0
:1010B00009F4A140A6958FEF811D811D089597F930
:1010C0009F6780E870E060E008959FEF80EC0895EE
:1010D00000240A9416161706180609060895002417
:1010E0000A9412161306140605060895092E039491
:1010F000000C11F4882352F0BB0F40F4BF2B11F405
:1011000060FF04C06F5F7F4F8F4F9F4F089557FD63
:101110009058440F551F59F05F3F71F04795880F65
:1011200097FB991F61F09F3F79F0879508951216FC
:1011300013061406551FF2CF4695F1DF08C01616A8
:1011400017061806991FF1CF869571056105089459
:101150000895E894BB2766277727CB0197F9089570
:101160008ADF08F48FEF08950BD0C0CFB1DF28F0ED
:10117000B6DF18F0952309F0A2CFA7CF1124EACF4C
:10118000C6DFA0F3959FD1F3950F50E0551F629FE6
:10119000F001729FBB27F00DB11D639FAA27F00DD0
:1011A000B11DAA1F649F6627B00DA11D661F829FF7
:1011B0002227B00DA11D621F739FB00DA11D621FDC
:1011C000839FA00D611D221F749F3327A00D611DF9
:1011D000231F849F600D211D822F762F6A2F1124DB
:1011E0009F5750408AF0E1F088234AF0EE0FFF1F2E
:1011F000BB1F661F771F881F91505040A9F79E3F65
:10120000510570F05CCFA6CF5F3FECF3983EDCF366
:10121000869577956795B795F795E7959F5FC1F7A1
:10122000FE2B880F911D9695879597F90895A1E259
:101230001A2EAA1BBB1BFD010DC0AA1FBB1FEE1F50
:10124000FF1FA217B307E407F50720F0A21BB30B9B
:10125000E40BF50B661F771F881F991F1A9469F717
:1012600060957095809590959B01AC01BD01CF0173
:101270000895EF920F931F93CF93DF93E80147FFF9
:1012800002C034E101C034E0E42FFF27E7FDF09510
:10129000F7FF03C0F195E195F109E32E022F2E2F00
:1012A000AE0107D0CE01DF91CF911F910F91EF904A
:1012B00008956F927F929F92AF92BF92CF92DF92EA
:1012C000EF92FF920F931F93CF93DF93CDB7DEB7CB
:1012D00029970FB6F894DEBF0FBECDBF6A01B22EBC
:1012E000102F0C3320F4FF24F394F00E02C04CE3D3
:1012F000F42E0F2D27E0AE014F5F5F4F57D179815C
:10130000272F2970213031F0E1FC06C0E0FC06C037
:1013100060E005C06DE203C06BE201C060E2AE2D8B
:10132000A07173FF36C0662311F084E001C083E032
:101330008B1510F4B81A01C0B12CA1110BC0F60125
:101340008B2D90E2882319F091938150FBCFCB0C29
:10135000D11CB12C662331F0F601608396012F5F1A
:101360003F4F6901C6010396E2FE05C02EE4F60177
:10137000208331E404C02EE6F601208331E6318378
:101380002283FC012B2D30E22223F1F131932150F5
:10139000FBCF72FF40C0662311F084E001C083E000
:1013A0008B1510F4B81A01C0B12CA1110BC0F601B5
:1013B0008B2D90E2882319F091938150FBCFCB0CB9
:1013C000D11CB12C662331F0F601608396012F5FAA
:1013D0003F4F6901C6010396E2FE07C029E4F6010A
:1013E00020832EE4218326E406C029E6F60120832B
:1013F0002EE6218326E62283FC012B2D30E22223D8
:1014000019F031932150FBCFFC01EB0DF11D10823F
:101410008EEF9FEFB7C0B1E0611101C0B0E04B2F7C
:1014200050E01816190624F49C012F5F3F4F02C0AC
:1014300021E030E0240F351F112329F0412F50E027
:101440004F5F5F4F02C040E050E0420F531F2B2D13
:1014500030E04217530714F4B41A01C0B12C2E2DFA
:10146000287159F4F6012B2D30E2222319F0319323
:101470002150FBCFCB0CD11CB12CBB2331F0F6019A
:10148000608396012F5F3F4F6901A1110BC0F601E8
:101490002B2D30E3222319F031932150FBCFCB0CBD
:1014A000D11CB12CF80E0A81372F3071A32E74FF96
:1014B00003C0013309F4FA941F142CF42F2D2930A2
:1014C00018F028E001C021E0682F392F97FF02C0F3
:1014D00060E030E0462F532F612C712C3EE2932EBA
:1014E000BC01621B71099B01DC01A41BB50BE1E08F
:1014F000F0E0EC0FFD1FAE0FBF1FE12EF12CF194B9
:10150000E194F1084F3FFFEF5F0731F4F60190825D
:10151000B6016F5F7F4F6B01841795074CF024175E
:10152000350734F4BD01660D771DFB01118101C043
:1015300010E341505109FFEF6F1A7F0AB6016F5F48
:101540007F4F4E155F0524F0F60110836B01DACF53
:101550004817590739F4063320F4053319F4A1105C
:1015600001C011E3F6011083FB018B2D90E288236B
:1015700019F091938150FBCFFB01EB0DF11D10820F
:1015800080E090E029960FB6F894DEBF0FBECDBF85
:10159000DF91CF911F910F91FF90EF90DF90CF904F
:1015A000BF90AF909F907F906F900895283008F083
:1015B00027E03327DA01990F311D87FD91600096EE
:1015C0006105710539F432602E5F3D9330E32A9551
:1015D000E1F708959F3F30F080387105610509F00B
:1015E0003C5F3C5F3D93913008F08068911DDF9334
:1015F000CF931F930F93FF92EF92192F987F969599
:10160000E92F96959695E90FFF27E25CFE4F992703
:101610003327EE24FF24A701E701059008940794DF
:1016200028F4360FE71EF81E491F511D660F771F5D
:10163000881F991F0694A1F70590079428F4E70ED8
:10164000F81E491F561FC11D770F881F991F661F5F
:101650000694A1F70590079428F4F80E491F561F29
:10166000C71FD11D880F991F661F771F0694A1F70A
:101670000590079420F4490F561FC71FD81F990FD4
:10168000661F771F881F0694A9F78491109517701D
:1016900041F0D695C79557954795F794E7941A95D5
:1016A000C1F7E4EEF0E068941590159135916591DD
:1016B000959105907FE27395E118F10A430B560B63
:1016C000C90BD009C0F7E10CF11E431F561FC91FFB
:1016D000D01D7EF4703311F48A95E6CFE894015062
:1016E00030F0080F0AF40027021708F4202F239582
:1016F000022F7A3328F079E37D932A95E9F710C019
:101700007D932A9589F60694979567953795179551
:101710001794E118F10A430B560BC90BD00998F046
:1017200023957E9173957A3308F070E37C932013B0
:10173000B8F77E9170617D9330F0839571E37D936E
:1017400070E32A95E1F71124EF90FF900F911F911C
:10175000CF91DF91992787FD90950895F894FFCF59
:1017600044657465726D696E696E6720416C746959
:101770006D65746572205374617274206865696761
:1017800068742C2073616D706C696E6720666F726F
:101790002031732E2E2E005374617274696E67208F
:1017A00068656967687420696E697469616C6973DA
:1017B000656420746F3A2000206D00416C74696D7F
:1017C0006574657220636F6E6E6563746564206313
:1017D0006F72726563746C792100416C74696D6518
:1017E000746572206E6F7420636F6E6E65637465CE
:1017F000642100416C74696D6574657220696E695D
:101800007469616C6973656420636F727265637477
:101810006C792100416C74696D6574657220666134
:10182000696C656420746F20696E697469616C69A4
:10183000736521000A0D000900496E697469616CC5
:10184000697A6174696F6E20636F6D706C65746521
:02185000210075
:00000001FF
