:1000000071C000008EC000008CC000008AC00000DB
:1000100088C0000086C0000084C0000082C00000CC
:1000200080C00000A4C00000E4C0000024C10000A3
:1000300078C0000076C0000074C0000072C00000EC
:1000400070C000006EC000006CC000006AC00000FC
:1000500068C0000066C0000064C000004EC100001F
:1000600060C000005EC000005CC000005AC000001C
:1000700058C0000056C0000054C0000052C000002C
:1000800050C000004EC000004CC000004AC000003C
:1000900048C0000046C0000044C0000042C000004C
:1000A00040C000003EC000003CC000003AC000005C
:1000B00038C0000036C0000034C0000032C000006C
:1000C00030C000002EC000002CC000002AC000007C
:1000D00028C0000026C0000024C0000022C000008C
:1000E00020C0000011241FBECFEFD1E2DEBFCDBF84
:1000F00000E00CBF12E0A0E0B2E0EEE1F8E000E0CA
:100100000BBF02C007900D92A833B107D9F722E0C8
:10011000A8E3B2E001C01D92A435B207E1F701D215
:100120007CC36ECFBC0180E090E0E7D160E072E07C
:1001300080E090E0E2C10895CF93DF93CDB7DEB7C2
:100140002A970FB6F894DEBF0FBECDBF4AE0BE01BE
:100150006F5F7F4F2FD3CE010196E4DF2A960FB653
:10016000F894DEBF0FBECDBFDF91CF9108951F92EF
:100170000F920FB60F9211240BB60F922F933F934D
:100180004F935F936F937F938F939F93AF93BF939F
:10019000EF93FF93189B0AC006D1609340027093BF
:1001A0004102809342029093430210C0FCD0209100
:1001B000400230914102621B730B70934A026093BC
:1001C000490280914402816080934402FF91EF9143
:1001D000BF91AF919F918F917F916F915F914F915F
:1001E0003F912F910F900BBE0F900FBE0F901F905D
:1001F00018951F920F920FB60F9211240BB60F9203
:100200002F933F934F935F936F937F938F939F931E
:10021000AF93BF93EF93FF93199B0AC0C4D0609331
:100220003C0270933D0280933E0290933F0210C0C7
:10023000BAD020913C0230913D02621B730B709347
:100240004802609347028091440282608093440296
:10025000FF91EF91BF91AF919F918F917F916F919E
:100260005F914F913F912F910F900BBE0F900FBE5A
:100270000F901F9018951F920F920FB60F92112496
:100280000BB60F922F933F934F935F936F937F9390
:100290008F939F93AF93BF93EF93FF931A9B0AC0E3
:1002A00082D0609338027093390280933A0290931F
:1002B0003B0210C078D02091380230913902621B85
:1002C000730B7093460260934502809144028460F0
:1002D00080934402FF91EF91BF91AF919F918F91D5
:1002E0007F916F915F914F913F912F910F900BBE36
:1002F0000F900FBE0F901F9018951F920F920FB680
:100300000F9211242F933F938F939F93AF93BF939B
:1003100080914C0290914D02A0914E02B0914F02FB
:1003200030914B0223E0230F2D3720F40196A11DBD
:10033000B11D05C026E8230F0296A11DB11D209313
:100340004B0280934C0290934D02A0934E02B093C7
:100350004F028091500290915102A0915202B091AF
:1003600053020196A11DB11D80935002909351023A
:10037000A0935202B0935302BF91AF919F918F917E
:100380003F912F910F900FBE0F901F9018952FB790
:10039000F89460914C0270914D0280914E029091C0
:1003A0004F022FBF08953FB7F8948091500290916B
:1003B0005102A0915202B091530226B5A89B02C0EF
:1003C0002F3FA1F43FBFBA2FA92F982F8827820F64
:1003D000911DA11DB11DBC01CD01660F771F881FA6
:1003E000991F660F771F881F991F08950196A11DF9
:1003F000B11DE8CFCF93DF93EC01CB01AA2797FD86
:10040000A095BA2F880F991FAA1FBB1F880F991F8D
:10041000AA1FBB1F9C01AD01220F331F441F551F94
:10042000220F331F441F551F60E074E284EF90E0F9
:1004300083D121503109209759F43093C50020937E
:10044000C40088E18093C10086E08093C20028C088
:10045000C130D10559F43093CD002093CC0088E110
:100460008093C90086E08093CA001AC0C230D105CB
:1004700059F43093D5002093D40088E18093D100C3
:1004800086E08093D2000CC0239751F4309335015D
:100490002093340188E18093310186E0809332011A
:1004A000DF91CF910895009741F4E0ECF0E0808176
:1004B00085FFFDCF6093C60008958130910541F41A
:1004C000E8ECF0E0808185FFFDCF6093CE000895D9
:1004D0008230910541F4E0EDF0E0808185FFFDCFB1
:1004E0006093D6000895039739F4E0E3F1E080814A
:1004F00085FFFDCF6093360108950F931F93CF932F
:10050000DF938C01EB016881662331F02196C801ED
:10051000CADF69916111FBCFDF91CF911F910F91DC
:10052000089560E875E280E090E064DF83E092E0A7
:10053000F9DD88EE93E000DE0F2EF8EECF2EF3E02B
:10054000DF2EE12CF12CF02D82E292E0EBDD1FDFBB
:10055000A701960113D1CA01B90141D0A4D00CD092
:10056000CB01EADD2FEF83ED90E3215080409040F6
:10057000E1F700C00000E8CF04D06894B1118DC04D
:10058000089570D088F09F5790F0B92F9927B751F0
:10059000A0F0D1F0660F771F881F991F1AF0BA9547
:1005A000C9F712C0B13081F077D0B1E0089574C0BE
:1005B000672F782F8827B85F39F0B93FCCF386953D
:1005C00077956795B395D9F73EF49095809570959A
:1005D00061957F4F8F4F9F4F0895E89409C097FB17
:1005E0003EF490958095709561957F4F8F4F9F4F0A
:1005F0009923A9F0F92F96E9BB279395F69587954E
:1006000077956795B795F111F8CFFAF4BB0F11F410
:1006100060FF1BC06F5F7F4F8F4F9F4F16C08823B7
:1006200011F096E911C0772321F09EE8872F762FED
:1006300005C0662371F096E8862F70E060E02AF02E
:100640009A95660F771F881FDAF7880F969587951A
:1006500097F9089557FD9058440F551F59F05F3F83
:1006600071F04795880F97FB991F61F09F3F79F0D4
:1006700087950895121613061406551FF2CF469556
:10068000F1DF08C0161617061806991FF1CF8695D8
:100690007105610508940895E894BB2766277727BC
:1006A000CB0197F90895DEDFE0F09E37D8F0963958
:1006B000B8F49E3848F4672F782F8827985FF9CFD1
:1006C00086957795679593959539D0F3B62FB17048
:1006D0006B0F711D811D20F4879577956795939514
:1006E00002C01CC0DACF882371F4772321F0985020
:1006F000872B762F07C0662311F499270DC09051E0
:10070000862B70E060E02AF09A95660F771F881FAD
:10071000DAF7880F9695879597F908959F3F31F0FE
:10072000915020F4879577956795B795880F911D1F
:100730009695879597F90895A1E21A2EAA1BBB1BDF
:10074000FD010DC0AA1FBB1FEE1FFF1FA217B3079D
:10075000E407F50720F0A21BB30BE40BF50B661FB3
:10076000771F881F991F1A9469F760957095809577
:1007700090959B01AC01BD01CF010895052E97FB1B
:1007800016F400940FD057FD05D0D6DF07FC02D039
:1007900046F408C050954095309521953F4F4F4FF6
:1007A0005F4F089590958095709561957F4F8F4F1D
:1007B0009F4F0895BB274A3031F4992322F4BDE2BC
:1007C000909581959F4F01C0BB27FB015527AA2714
:1007D000880F991FAA1FA41710F0A41B83955051CE
:1007E000B9F7A05DAA3308F0A95DA193009779F746
:1007F000B111B1931192CB0100C0DC01FC01672F54
:1008000071917723E1F7329704C07C916D937083E7
:0E0810006291AE17BF07C8F30895F894FFCFAA
:10081E000A0D0054657374696E67206465627567AE
:10082E002066756E6374696F6E616C6974792E2EB5
:10083E002E004C6F6F70696E672C2074696D652089
:08084E0069732E2E2E2000001C
:00000001FF
