:10000000EEC000000BC1000009C1000007C10000E4
:1000100005C1000003C1000001C10000FFC00000D5
:10002000FDC0000027C10000F9C00000F7C00000BB
:10003000F5C00000F3C00000F1C00000EFC00000F8
:10004000EDC00000EBC00000E9C00000E7C0000008
:10005000E5C00000E3C00000E1C00000E2C1000014
:10006000DDC00000DBC00000D9C00000D7C0000028
:10007000D5C00000D3C00000D1C00000CFC0000038
:10008000CDC00000CBC00000C9C00000C7C0000048
:10009000C5C00000C3C00000C1C00000BFC0000058
:1000A000BDC00000BBC00000B9C00000B7C0000068
:1000B000B5C00000B3C00000B1C00000AFC0000078
:1000C000ADC00000ABC00000A9C00000A7C0000088
:1000D000A5C00000A3C00000A1C000009FC0000098
:1000E0009DC0000000407A10F35A00A0724E18091B
:1000F0000010A5D4E80000E87648170000E40B548F
:10010000020000CA9A3B000000E1F505000080965D
:100110009800000040420F000000A086010000008F
:10012000102700000000E803000000006400000049
:1001300000000A00000000000100000000002C7612
:10014000D888DC674F0823DFC1DFAE59E1B1B7962D
:10015000E5E3E453C63AE651997696E8E6C284268A
:10016000EB898C9B62ED407C6FFCEFBC9C9F40F266
:10017000BAA56FA5F490055A2AF75C936B6CF967E2
:100180006DC11BFCE0E40D47FEF520E6B500D0EDA7
:10019000902E0300943577050080841E080000200F
:1001A0004E0A000000C80C333333330F986E1283AD
:1001B0001141EF8D2114893BE65516CFFEE6DB1881
:1001C000D1844B381BF77C1D901DA4BBE424203246
:1001D00084725E228100C9F124ECA1E53D2711243F
:1001E0001FBECFEFD1E2DEBFCDBF00E00CBF12E0FB
:1001F000A0E0B2E0ECE0FCE000E00BBF02C0079042
:100200000D92A031B107D9F722E0A0E1B2E001C020
:100210001D92A434B207E1F71DD2F6C4F1CEBC01A1
:1002200080E090E0FAD160E072E080E090E0F5C11B
:1002300008950F931F93CF93DF93CDB7DEB76497E5
:100240000FB6F894DEBF0FBECDBF8E010F5F1F4FFC
:1002500025E04AE064D2C801E2DF64960FB6F89464
:10026000DEBF0FBECDBFDF91CF911F910F910895DB
:1002700080E008951F920F920FB60F9211240BB6D3
:100280000F922F933F934F935F936F937F938F932F
:100290009F93AF93BF93EF93FF9383B190911D0210
:1002A00023B120931D02892780FF1CC0189B0AC020
:1002B00002D160932A0270932B0280932C029093B8
:1002C0002D0210C0F8D020912A0230912B02621B1F
:1002D000730B70933A026093390280912E02816011
:1002E00080932E02FF91EF91BF91AF919F918F91DB
:1002F0007F916F915F914F913F912F910F900BBE26
:100300000F900FBE0F901F901895EBE6F0E08081E4
:1003100081608083E8E6F0E080818160808378946A
:10032000089580912E02882309F47AC0F8942091D0
:100330002E0220931C0220FF08C080913902909168
:100340003A0290931B0280931A0221FF08C0809109
:10035000370290913802909319028093180222FF7D
:1003600008C08091350290913602909317028093D5
:10037000160223FF08C080913302909134029093BB
:1003800015028093140224FF08C0809131029091DD
:100390003202909313028093120225FF08C08091CD
:1003A0002F029091300290931102809310021092CC
:1003B0002E02789410921C0260911A0270911B0216
:1003C000709329026093280280911802909119027B
:1003D0009093270280932602809116029091170233
:1003E000909325028093240280911402909115022B
:1003F0009093230280932202809112029091130223
:10040000909321028093200280911002909111021A
:1004100090931F0280931E0280E090E021D109CFCB
:1004200008951F920F920FB60F9211242F933F93AE
:100430008F939F93AF93BF9380913C0290913D0225
:10044000A0913E02B0913F0230913B0223E0230F86
:100450002D3720F40196A11DB11D05C026E8230FFC
:100460000296A11DB11D20933B0280933C02909304
:100470003D02A0933E02B0933F02809140029091D2
:100480004102A0914202B09143020196A11DB11D0B
:100490008093400290934102A0934202B0934302A2
:1004A000BF91AF919F918F913F912F910F900FBE70
:1004B0000F901F9018953FB7F8948091400290914B
:1004C0004102A0914202B091430226B5A89B02C00E
:1004D0002F3FA9F43FBF7894BA2FA92F982F8827D0
:1004E000820F911DA11DB11DBC01CD01660F771FAB
:1004F000881F991F660F771F881F991F08950196FF
:10050000A11DB11DE7CF81E080936E0016BC83E092
:1005100085BD0895CF93DF93EC01CB01AA2797FD0A
:10052000A095BA2F880F991FAA1FBB1F880F991F6C
:10053000AA1FBB1F9C01AD01220F331F441F551F73
:10054000220F331F441F551F60E074E284EF90E0D8
:10055000C4D021503109209759F43093C50020931D
:10056000C40088E18093C10086E08093C20028C067
:10057000C130D10559F43093CD002093CC0088E1EF
:100580008093C90086E08093CA001AC0C230D105AA
:1005900059F43093D5002093D40088E18093D100A2
:1005A00086E08093D2000CC0239751F4309335013C
:1005B0002093340188E18093310186E080933201F9
:1005C000DF91CF910895009741F4E0ECF0E0808155
:1005D00085FFFDCF6093C60008958130910541F4F9
:1005E000E8ECF0E0808185FFFDCF6093CE000895B8
:1005F0008230910541F4E0EDF0E0808185FFFDCF90
:100600006093D6000895039739F4E0E3F1E0808128
:1006100085FFFDCF6093360108950F931F93CF930D
:10062000DF938C01EB016881662331F02196C801CC
:10063000CADF69916111FBCFDF91CF911F910F91BB
:10064000089560E875E280E090E064DF5CDF10DE32
:100650005CCE0895F6DF83E092E0E1DD62DEFECF5E
:10066000E89409C097FB3EF490958095709561954C
:100670007F4F8F4F9F4F9923A9F0F92F96E9BB2702
:100680009395F695879577956795B795F111F8CF7E
:10069000FAF4BB0F11F460FF1BC06F5F7F4F8F4FE9
:1006A0009F4F16C0882311F096E911C0772321F0DF
:1006B0009EE8872F762F05C0662371F096E8862F77
:1006C00070E060E02AF09A95660F771F881FDAF7CE
:1006D000880F9695879597F90895A1E21A2EAA1B7F
:1006E000BB1BFD010DC0AA1FBB1FEE1FFF1FA217E2
:1006F000B307E407F50720F0A21BB30BE40BF50BDF
:10070000661F771F881F991F1A9469F76095709567
:10071000809590959B01AC01BD01CF010895EF92AA
:100720000F931F93CF93DF93E80147FF02C034E19B
:1007300001C034E0E42FFF27E7FDF095F7FF03C089
:10074000F195E195F109E32E022F2E2FAE0107D08E
:10075000CE01DF91CF911F910F91EF9008956F928D
:100760007F929F92AF92BF92CF92DF92EF92FF92D1
:100770000F931F93CF93DF93CDB7DEB729970FB6B3
:10078000F894DEBF0FBECDBF6A01B22E102F0C331E
:1007900020F4FF24F394F00E02C04CE3F42E0F2D4E
:1007A00027E0AE014F5F5F4F57D17981272F297026
:1007B000213031F0E1FC06C0E0FC06C060E005C07D
:1007C0006DE203C06BE201C060E2AE2DA07173FF69
:1007D00036C0662311F084E001C083E08B1510F46D
:1007E000B81A01C0B12CA1110BC0F6018B2D90E2FB
:1007F000882319F091938150FBCFCB0CD11CB12CE5
:10080000662331F0F601608396012F5F3F4F690147
:10081000C6010396E2FE05C02EE4F601208331E412
:1008200004C02EE6F601208331E631832283FC01E9
:100830002B2D30E22223F1F131932150FBCF72FFB7
:1008400040C0662311F084E001C083E08B1510F4F2
:10085000B81A01C0B12CA1110BC0F6018B2D90E28A
:10086000882319F091938150FBCFCB0CD11CB12C74
:10087000662331F0F601608396012F5F3F4F6901D7
:10088000C6010396E2FE07C029E4F60120832EE4A8
:10089000218326E406C029E6F60120832EE6218383
:1008A00026E62283FC012B2D30E2222319F031931E
:1008B0002150FBCFFC01EB0DF11D10828EEF9FEF5D
:1008C000B7C0B1E0611101C0B0E04B2F50E0181685
:1008D000190624F49C012F5F3F4F02C021E030E055
:1008E000240F351F112329F0412F50E04F5F5F4F38
:1008F00002C040E050E0420F531F2B2D30E0421762
:10090000530714F4B41A01C0B12C2E2D287159F4D8
:10091000F6012B2D30E2222319F031932150FBCF29
:10092000CB0CD11CB12CBB2331F0F60160839601B6
:100930002F5F3F4F6901A1110BC0F6012B2D30E352
:10094000222319F031932150FBCFCB0CD11CB12CB9
:10095000F80E0A81372F3071A32E74FF03C00133C4
:1009600009F4FA941F142CF42F2D293018F028E0E4
:1009700001C021E0682F392F97FF02C060E030E00E
:10098000462F532F612C712C3EE2932EBC01621B2B
:1009900071099B01DC01A41BB50BE1E0F0E0EC0F59
:1009A000FD1FAE0FBF1FE12EF12CF194E194F10871
:1009B0004F3FFFEF5F0731F4F6019082B6016F5FA2
:1009C0007F4F6B01841795074CF02417350734F4DB
:1009D000BD01660D771DFB01118101C010E341507F
:1009E0005109FFEF6F1A7F0AB6016F5F7F4F4E15F7
:1009F0005F0524F0F60110836B01DACF4817590721
:100A000039F4063320F4053319F4A11001C011E3C1
:100A1000F6011083FB018B2D90E2882319F091934E
:100A20008150FBCFFB01EB0DF11D108280E090E0C7
:100A300029960FB6F894DEBF0FBECDBFDF91CF91E0
:100A40001F910F91FF90EF90DF90CF90BF90AF90EC
:100A50009F907F906F900895283008F027E033270B
:100A6000DA01990F311D87FD9160009661057105CE
:100A700039F432602E5F3D9330E32A95E1F7089513
:100A80009F3F30F080387105610509F03C5F3C5FA5
:100A90003D93913008F08068911DDF93CF931F93B1
:100AA0000F93FF92EF92192F987F9695E92F9695C5
:100AB0009695E90FFF27E25CFE4F99273327EE2436
:100AC000FF24A701E70105900894079428F4360F46
:100AD000E71EF81E491F511D660F771F881F991FBB
:100AE0000694A1F70590079428F4E70EF81E491F15
:100AF000561FC11D770F881F991F661F0694A1F707
:100B00000590079428F4F80E491F561FC71FD11DE2
:100B1000880F991F661F771F0694A1F70590079409
:100B200020F4490F561FC71FD81F990F661F771F44
:100B3000881F0694A9F784911095177041F0D695F7
:100B4000C79557954795F794E7941A95C1F7E4EE42
:100B5000F0E0689415901591359165919591059007
:100B60007FE27395E118F10A430B560BC90BD009CC
:100B7000C0F7E10CF11E431F561FC91FD01D7EF4A4
:100B8000703311F48A95E6CFE894015030F0080FE5
:100B90000AF40027021708F4202F2395022F7A3336
:100BA00028F079E37D932A95E9F710C07D932A9583
:100BB00089F6069497956795379517951794E118D8
:100BC000F10A430B560BC90BD00998F023957E917F
:100BD00073957A3308F070E37C932013B8F77E9115
:100BE00070617D9330F0839571E37D9370E32A9576
:100BF000E1F71124EF90FF900F911F91CF91DF91BA
:0C0C0000992787FD90950895F894FFCF88
:100C0C000A0D005374617274696E672E2E2E0000EB
:00000001FF
