S0190000776179706F696E744E6176696761746F722E73726563E5
S113000071C000008EC000008CC000008AC00000D7
S113001088C0000086C0000084C0000082C00000C8
S113002080C000002BC100007CC000007AC000002A
S113003078C0000076C0000074C0000072C00000E8
S113004070C000006EC000006CC000006AC00000F8
S113005068C0000066C0000064C0000063C0000007
S113006060C000005EC000005CC000005AC0000018
S113007058C0000056C0000054C0000052C0000028
S113008050C000004EC000004CC000004AC0000038
S113009048C0000046C0000044C0000042C0000048
S11300A040C000003EC000003CC000003AC0000058
S11300B038C0000036C0000034C0000032C0000068
S11300C030C000002EC000002CC000002AC0000078
S11300D028C0000026C0000024C0000022C0000088
S11300E020C0000011241FBECFEFD1E2DEBFCDBF80
S11300F000E00CBF12E0A0E0B2E0ECE8F3E000E0C6
S11301000BBF02C007900D92AE30B107D9F722E0C1
S1130110AEE0B2E001C01D92AE31B207E1F712D1F8
S113012033C16ECF1F920F920FB60F9211242F93EB
S11301303F938F939F93AF93BF93809116029091B7
S11301401702A0911802B09119023091150223E010
S1130150230F2D3720F40196A11DB11D05C026E8FB
S1130160230F0296A11DB11D209315028093160240
S113017090931702A0931802B093190280911A0267
S113018090911B02A0911C02B0911D020196A11D29
S1130190B11D80931A0290931B02A0931C02B0938A
S11301A01D02BF91AF919F918F913F912F910F901D
S11301B00FBE0F901F9018953FB7F89480911A02C4
S11301C090911B02A0911C02B0911D0226B5A89B20
S11301D002C02F3FA1F43FBFBA2FA92F982F882721
S11301E0820F911DA11DB11DBC01CD01660F771FAA
S11301F0881F991F660F771F881F991F08950196FE
S1130200A11DB11DE8CFF89484B5826084BD84B586
S1130210816084BD85B5826085BD85B5816085BDFD
S1130220EEE6F0E0808181608083E1E8F0E08081A7
S113023082608083808181608083E0E8F0E0808157
S113024081608083E1EBF0E0808184608083E0EB77
S1130250F0E0808181608083EAE7F0E0808184605F
S113026080838081826080838081816080838081BB
S1130270806880831092C100789408951F920F9231
S11302800FB60F9211240BB60F922F933F934F93F7
S11302905F936F937F938F939F93AF93BF93EF93EA
S11302A0FF93009B0AC088DF60930E0270930F02D5
S11302B0809310029093110210C07EDF20910E02F1
S11302C030910F02621B730B70931402609313023C
S11302D080911202816080931202FF91EF91BF918D
S11302E0AF919F918F917F916F915F914F913F91CA
S11302F02F910F900BBE0F900FBE0F901F9018956B
S11303001092C50087E68093C40088E18093C10001
S113031086E08093C2000895E0ECF0E0908195FFC0
S1130320FDCF8093C6000895CF93DF93EC018881BD
S1130330882329F02196F0DF89918111FCCFDF9188
S1130340CF910895CF93DF93CDB7DEB72D970FB636
S1130350F894DEBF0FBECDBF8DE0E0E0F2E0DE0139
S1130360119601900D928A95E1F7CADF4CDFCE0118
S11303700196DADF2FEF83E294EF21508040904022
S10F0380E1F700C00000F3CFF894FFCFB9
S111038C5465737420737472696E672E0000DA
S9030000FC
