:10000000EEC000000BC1000009C1000007C10000E4
:1000100005C1000003C1000001C10000FFC00000D5
:10002000FDC000003BC20000F9C00000F7C00000A6
:10003000F5C00000F3C00000F1C00000EFC00000F8
:10004000EDC00000EBC00000E9C00000E7C0000008
:10005000E5C00000E3C00000E1C0000002C30000F2
:10006000DDC00000DBC00000D9C00000D7C0000028
:10007000D5C00000D3C00000D1C00000CFC0000038
:10008000CDC00000CBC00000C9C00000C7C0000048
:10009000C5C00000C3C00000C1C00000BFC0000058
:1000A000BDC00000BBC00000B9C00000B7C0000068
:1000B000B5C00000B3C00000B1C00000AFC0000078
:1000C000ADC00000ABC00000A9C00000A7C0000088
:1000D000A5C00000A3C00000A1C000009FC0000098
:1000E0009DC0000000407A10F35A00A0724E18091B
:1000F0000010A5D4E80000E87648170000E40B548F
:10010000020000CA9A3B000000E1F505000080965D
:100110009800000040420F000000A086010000008F
:10012000102700000000E803000000006400000049
:1001300000000A00000000000100000000002C7612
:10014000D888DC674F0823DFC1DFAE59E1B1B7962D
:10015000E5E3E453C63AE651997696E8E6C284268A
:10016000EB898C9B62ED407C6FFCEFBC9C9F40F266
:10017000BAA56FA5F490055A2AF75C936B6CF967E2
:100180006DC11BFCE0E40D47FEF520E6B500D0EDA7
:10019000902E0300943577050080841E080000200F
:1001A0004E0A000000C80C333333330F986E1283AD
:1001B0001141EF8D2114893BE65516CFFEE6DB1881
:1001C000D1844B381BF77C1D901DA4BBE424203246
:1001D00084725E228100C9F124ECA1E53D2711243F
:1001E0001FBECFEFD1E2DEBFCDBF00E00CBF12E0FB
:1001F000A0E0B2E0E4E8F0E100E00BBF02C007904D
:100200000D92AC3BB107D9F722E0ACEBB2E001C0F4
:100210001D92AB3EB207E1F73FD332C7F1CE00C02B
:1002200000C000C000C000C000C000000895519888
:100230005098599858980895519AF1DF1DC0089523
:10024000509AEDDF5198EBDF5098E9DF519AE7DFE4
:1002500013C00895082E519AE2DF802D0DD0882317
:1002600011F002D0F8CF0895509A519AD8DF5098E3
:10027000D6DF5198D4CF08950894881F01C0880F05
:1002800059F0509A18F40000519802C0519A00C0D9
:10029000C6DF5098C4DFF3CF509A5198C0DF509812
:1002A000489BFECF8827499981E0B9DF99270895B7
:1002B000882701C081E071E0509A5198B0DF5098D2
:1002C000AEDF489BFECF889449990894771FA0F72A
:1002D000509A813011F0519801C0519AA0DF509886
:1002E000489BFECF9CDF872F9927089580ECB2DFD3
:1002F00083E1C2DF87E0C0CF0895CF93C82F80ECA1
:100300009FDF8C2FB9DF81EC9BDFD2DFCF91089587
:10031000CF93DF93D82FC62F80EC9CDF8D2FACDFDF
:100320008C2FAADFA1DFDF91CF91089586E2E5DF70
:10033000682F6D7F86E2ECDF86E2DFDF682F626088
:1003400086E2E6CF0895CF92DF92EF92FF92CF93AD
:10035000EDDF2FEF81EE94E0215080409040E1F7F7
:1003600000C0000080EC76DF81E086DF81EC68DF92
:10037000A1DFE82E9FDFF82E9BDFC82F75DFD6DFC9
:100380004E2D552747FD5095742F66272F2D332767
:1003900027FD3095622B732B882777FD8095982F4A
:1003A000E9D26B017C016C2F772767FD70957595FD
:1003B0006795759567957595679575956795882780
:1003C00077FD8095982FD6D220E030E040E85DE3BD
:1003D0005DD39B01AC01C701B60166D2CF91FF90FE
:1003E000EF90DF90CF90089586E287DF682F6068F6
:1003F00086E28ECF0895CF93C82F883008F0C7E0EB
:1004000086E27BDF877CCC0FCC0FCC0F682F6C2B68
:1004100086E27EDFCF9108950ADF8CE06EDF843CB8
:1004200021F481E592E011D003C080E792E00DD085
:10043000DBDF87E0E0DF5ADF89E892E006C008955D
:10044000BC0180E090E009C20895BC0180E090E02A
:1004500004D260EA72E080E090E0FFC108950F935B
:100460001F93CF93DF93CDB7DEB764970FB6F894A1
:10047000DEBF0FBECDBF8E010F5F1F4F25E04AE0EC
:100480008AD3C801DDDF64960FB6F894DEBF0FBED5
:10049000CDBFDF91CF911F910F9108951F920F92C1
:1004A0000FB60F9211240BB60F922F933F934F93D9
:1004B0005F936F937F938F939F93AF93BF93CF93EC
:1004C000EF93FF9383B1C091BC02C82783B180939F
:1004D000BC02C0FF1CC0189B0AC00DD16093D102A2
:1004E0007093D2028093D3029093D40210C003D1B0
:1004F0002091D1023091D202621B730B7093E10202
:100500006093E0028091D50281608093D502C1FFA3
:100510001CC0199B0AC0EFD06093CD027093CE022D
:100520008093CF029093D00210C0E5D02091CD02ED
:100530003091CE02621B730B7093DF026093DE0278
:100540008091D50282608093D502C2FF1CC01A9BA5
:100550000AC0D1D06093C9027093CA028093CB02C3
:100560009093CC0210C0C7D02091C9023091CA022A
:10057000621B730B7093DD026093DC028091D502E5
:1005800084608093D502C3FF1CC01B9B0AC0B3D0FC
:100590006093C5027093C6028093C7029093C8020D
:1005A00010C0A9D02091C5023091C602621B730B06
:1005B0007093DB026093DA028091D50288608093A9
:1005C000D502C4FF1CC01C9B0AC095D06093C10219
:1005D0007093C2028093C3029093C40210C08BD068
:1005E0002091C1023091C202621B730B7093D90239
:1005F0006093D8028091D50280618093D502C5FFB7
:100600001CC01D9B0AC077D06093BD027093BE02D0
:100610008093BF029093C00210C06DD02091BD02A4
:100620003091BE02621B730B7093D7026093D602A7
:100630008091D50280628093D502FF91EF91CF9196
:10064000BF91AF919F918F917F916F915F914F91EA
:100650003F912F910F900BBE0F900FBE0F901F90E8
:1006600018951F920F920FB60F9211242F933F935C
:100670008F939F93AF93BF938091E3029091E40295
:10068000A091E502B091E6023091E20223E0230F4F
:100690002D3720F40196A11DB11D05C026E8230FBA
:1006A0000296A11DB11D2093E2028093E302909374
:1006B000E402A093E502B093E6028091E7029091F4
:1006C000E802A091E902B091EA020196A11DB11DD4
:1006D0008093E7029093E802A093E902B093EA02C4
:1006E000BF91AF919F918F913F912F910F900FBE2E
:1006F0000F901F9018953FB7F8948091E702909162
:10070000E802A091E902B091EA0226B5A89B02C0D6
:100710002F3FA9F43FBF7894BA2FA92F982F88278D
:10072000820F911DA11DB11DBC01CD01660F771F68
:10073000881F991F660F771F881F991F08950196BC
:10074000A11DB11DE7CF81E080936E0016BC83E050
:1007500085BD0895CF93DF93EC01CB01AA2797FDC8
:10076000A095BA2F880F991FAA1FBB1F880F991F2A
:10077000AA1FBB1F9C01AD01220F331F441F551F31
:10078000220F331F441F551F60E074E284EF90E096
:10079000E0D121503109209759F43093C5002093BE
:1007A000C40088E18093C10086E08093C20028C025
:1007B000C130D10559F43093CD002093CC0088E1AD
:1007C0008093C90086E08093CA001AC0C230D10568
:1007D00059F43093D5002093D40088E18093D10060
:1007E00086E08093D2000CC0239751F430933501FA
:1007F0002093340188E18093310186E080933201B7
:10080000DF91CF910895009741F4E0ECF0E0808112
:1008100085FFFDCF6093C60008958130910541F4B6
:10082000E8ECF0E0808185FFFDCF6093CE00089575
:100830008230910541F4E0EDF0E0808185FFFDCF4D
:100840006093D6000895039739F4E0E3F1E08081E6
:1008500085FFFDCF6093360108950F931F93CF93CB
:10086000DF938C01EB016881662331F02196C8018A
:10087000CADF69916111FBCFDF91CF911F910F9179
:10088000089560E875E280E090E064DF5CDFC4DD3D
:1008900083EA92E0DACD0895F4DF55DDE0DD80EA09
:1008A00092E0CEDDFACF5058BB27AA270ED0B4C0B5
:1008B000A5D030F0AAD020F031F49F3F11F41EF4FF
:1008C0009AC00EF4E095E7FB90C0E92FB6D080F314
:1008D000BA17620773078407950718F071F49EF53D
:1008E000CEC00EF4E0950B2EBA2FA02D0B01B9014E
:1008F00090010C01CA01A0011124FF27591B99F096
:10090000593F50F4503E68F11A16F040A22F232FA1
:10091000342F4427585FF3CF469537952795A795F1
:10092000F0405395C9F77EF41F16BA0B620B730B98
:10093000840BBAF09150A1F0FF0FBB1F661F771F09
:10094000881FC2F70EC0BA0F621F731F841F48F4BE
:10095000879577956795B795F7959E3F08F0B3CF44
:100960009395880F08F09927EE0F9795879508952E
:10097000E89409C097FB3EF4909580957095619539
:100980007F4F8F4F9F4F9923A9F0F92F96E9BB27EF
:100990009395F695879577956795B795F111F8CF6B
:1009A000FAF4BB0F11F460FF1BC06F5F7F4F8F4FD6
:1009B0009F4F16C0882311F096E911C0772321F0CC
:1009C0009EE8872F762F05C0662371F096E8862F64
:1009D00070E060E02AF09A95660F771F881FDAF7BB
:1009E000880F9695879597F9089597F99F6780E8FE
:1009F00070E060E008959FEF80EC089500240A9471
:100A00001616170618060906089500240A941216E9
:100A10001306140605060895092E0394000C11F41C
:100A2000882352F0BB0F40F4BF2B11F460FF04C0C9
:100A30006F5F7F4F8F4F9F4F089557FD9058440F22
:100A4000551F59F05F3F71F04795880F97FB991F2D
:100A500061F09F3F79F087950895121613061406EA
:100A6000551FF2CF4695F1DF08C016161706180677
:100A7000991FF1CF86957105610508940895E89452
:100A8000BB2766277727CB0197F908950BD0C4CFF2
:100A9000B5DF28F0BADF18F0952309F0A6CFABCF69
:100AA0001124EECFCADFA0F3959FD1F3950F50E04C
:100AB000551F629FF001729FBB27F00DB11D639F10
:100AC000AA27F00DB11DAA1F649F6627B00DA11DB6
:100AD000661F829F2227B00DA11D621F739FB00D5C
:100AE000A11D621F839FA00D611D221F749F3327CC
:100AF000A00D611D231F849F600D211D822F762F65
:100B00006A2F11249F5750408AF0E1F088234AF061
:100B1000EE0FFF1FBB1F661F771F881F91505040AD
:100B2000A9F79E3F510570F060CFAACF5F3FECF36D
:100B3000983EDCF3869577956795B795F795E79599
:100B40009F5FC1F7FE2B880F911D9695879597F9AA
:100B50000895A1E21A2EAA1BBB1BFD010DC0AA1FFE
:100B6000BB1FEE1FFF1FA217B307E407F50720F016
:100B7000A21BB30BE40BF50B661F771F881F991F91
:100B80001A9469F760957095809590959B01AC01DA
:100B9000BD01CF010895EF920F931F93CF93DF9381
:100BA000E80147FF02C034E101C034E0E42FFF2731
:100BB000E7FDF095F7FF03C0F195E195F109E32E0C
:100BC000022F2E2FAE0107D0CE01DF91CF911F91C2
:100BD0000F91EF9008956F927F929F92AF92BF9284
:100BE000CF92DF92EF92FF920F931F93CF93DF93F9
:100BF000CDB7DEB729970FB6F894DEBF0FBECDBFD5
:100C00006A01B22E102F0C3320F4FF24F394F00E5F
:100C100002C04CE3F42E0F2D27E0AE014F5F5F4F73
:100C200057D17981272F2970213031F0E1FC06C09E
:100C3000E0FC06C060E005C06DE203C06BE201C0ED
:100C400060E2AE2DA07173FF36C0662311F084E020
:100C500001C083E08B1510F4B81A01C0B12CA111AA
:100C60000BC0F6018B2D90E2882319F091938150EF
:100C7000FBCFCB0CD11CB12C662331F0F601608385
:100C800096012F5F3F4F6901C6010396E2FE05C042
:100C90002EE4F601208331E404C02EE6F601208321
:100CA00031E631832283FC012B2D30E22223F1F146
:100CB00031932150FBCF72FF40C0662311F084E0D6
:100CC00001C083E08B1510F4B81A01C0B12CA1113A
:100CD0000BC0F6018B2D90E2882319F0919381507F
:100CE000FBCFCB0CD11CB12C662331F0F601608315
:100CF00096012F5F3F4F6901C6010396E2FE07C0D0
:100D000029E4F60120832EE4218326E406C029E6A7
:100D1000F60120832EE6218326E62283FC012B2D7B
:100D200030E2222319F031932150FBCFFC01EB0D6F
:100D3000F11D10828EEF9FEFB7C0B1E0611101C0CD
:100D4000B0E04B2F50E01816190624F49C012F5FD9
:100D50003F4F02C021E030E0240F351F112329F05E
:100D6000412F50E04F5F5F4F02C040E050E0420F24
:100D7000531F2B2D30E04217530714F4B41A01C04F
:100D8000B12C2E2D287159F4F6012B2D30E222239F
:100D900019F031932150FBCFCB0CD11CB12CBB23CC
:100DA00031F0F601608396012F5F3F4F6901A11179
:100DB0000BC0F6012B2D30E3222319F03193215083
:100DC000FBCFCB0CD11CB12CF80E0A81372F307120
:100DD000A32E74FF03C0013309F4FA941F142CF4FA
:100DE0002F2D293018F028E001C021E0682F392F7D
:100DF00097FF02C060E030E0462F532F612C712C2A
:100E00003EE2932EBC01621B71099B01DC01A41B15
:100E1000B50BE1E0F0E0EC0FFD1FAE0FBF1FE12EC0
:100E2000F12CF194E194F1084F3FFFEF5F0731F4AB
:100E3000F6019082B6016F5F7F4F6B0184179507B3
:100E40004CF02417350734F4BD01660D771DFB0106
:100E5000118101C010E341505109FFEF6F1A7F0A61
:100E6000B6016F5F7F4F4E155F0524F0F6011083CA
:100E70006B01DACF4817590739F4063320F40533EC
:100E800019F4A11001C011E3F6011083FB018B2DB1
:100E900090E2882319F091938150FBCFFB01EB0D79
:100EA000F11D108280E090E029960FB6F894DEBF25
:100EB0000FBECDBFDF91CF911F910F91FF90EF90AB
:100EC000DF90CF90BF90AF909F907F906F900895EC
:100ED000283008F027E03327DA01990F311D87FD0C
:100EE000916000966105710539F432602E5F3D9383
:100EF00030E32A95E1F708959F3F30F0803871057F
:100F0000610509F03C5F3C5F3D93913008F08068DB
:100F1000911DDF93CF931F930F93FF92EF92192FA1
:100F2000987F9695E92F96959695E90FFF27E25CB5
:100F3000FE4F99273327EE24FF24A701E7010590F0
:100F40000894079428F4360FE71EF81E491F511D18
:100F5000660F771F881F991F0694A1F705900794C5
:100F600028F4E70EF81E491F561FC11D770F881F72
:100F7000991F661F0694A1F70590079428F4F80EB0
:100F8000491F561FC71FD11D880F991F661F771F46
:100F90000694A1F70590079420F4490F561FC71F28
:100FA000D81F990F661F771F881F0694A9F7849191
:100FB0001095177041F0D695C79557954795F794BA
:100FC000E7941A95C1F7E4EEF0E068941590159156
:100FD00035916591959105907FE27395E118F10A3D
:100FE000430B560BC90BD009C0F7E10CF11E431F90
:100FF000561FC91FD01D7EF4703311F48A95E6CFB9
:10100000E894015030F0080F0AF40027021708F4A2
:10101000202F2395022F7A3328F079E37D932A95A8
:10102000E9F710C07D932A9589F606949795679500
:10103000379517951794E118F10A430B560BC90B16
:10104000D00998F023957E9173957A3308F070E378
:101050007C932013B8F77E9170617D9330F0839577
:1010600071E37D9370E32A95E1F71124EF90FF90EF
:101070000F911F91CF91DF91992787FD909508954A
:04108000F894FFCF12
:101084005374617274696E67206D706C5F67657408
:10109400416C74006D706C5F676574416C742061A1
:1010A400637469766520616E64207374617475730A
:1010B40020636F6D706C657465006D706C5F67653F
:1010C40074416C74206932632073746F707065644A
:1010D40000416C74696D6574657220636F6E6E6532
:1010E4006374656420636F72726563746C79210044
:1010F400416C74696D65746572206E6F7420636FE2
:101104006E6E65637465642100416C74696D657409
:10111400657220696E697469616C697A656421001D
:101124000A0D00496E697469616C697A6174696F4A
:0C1134006E20636F6D706C6574652100A7
:00000001FF
