:1000000071C000008EC000008CC000008AC00000DB
:1000100088C0000086C0000084C0000082C00000CC
:1000200080C000007EC000007CC000007AC00000DC
:1000300078C0000076C0000074C0000072C00000EC
:1000400070C000006EC000006CC000006AC00000FC
:1000500068C0000066C0000064C0000063C000000B
:1000600060C000005EC000005CC000005AC000001C
:1000700058C0000056C0000054C0000052C000002C
:1000800050C000004EC000004CC000004AC000003C
:1000900048C0000046C0000044C0000042C000004C
:1000A00040C000003EC000003CC000003AC000005C
:1000B00038C0000036C0000034C0000032C000006C
:1000C00030C000002EC000002CC000002AC000007C
:1000D00028C0000026C0000024C0000022C000008C
:1000E00020C0000011241FBECFEFD1E2DEBFCDBF84
:1000F00000E00CBF12E0A0E0B2E0E6E5F3E000E0D3
:100100000BBF02C007900D92A630B107D9F722E0CD
:10011000A6E0B2E001C01D92AF30B207E1F7E3D034
:1001200018C16ECF1F920F920FB60F9211242F930A
:100130003F938F939F93AF93BF93809107029091CA
:100140000802A0910902B0910A023091060223E050
:10015000230F2D3720F40196A11DB11D05C026E8FF
:10016000230F0296A11DB11D209306028093070262
:1001700090930802A0930902B0930A0280910B02A7
:1001800090910C02A0910D02B0910E020196A11D5A
:10019000B11D80930B0290930C02A0930D02B093BB
:1001A0000E02BF91AF919F918F913F912F910F9030
:1001B0000FBE0F901F901895CF93DF93EC01CB01EA
:1001C000AA2797FDA095BA2F880F991FAA1FBB1FBA
:1001D000880F991FAA1FBB1F9C01AD01220F331F5F
:1001E000441F551F220F331F441F551F60E074E248
:1001F00084EF90E08CD021503109209759F430934E
:10020000C5002093C40088E18093C10086E08093FC
:10021000C20028C0C130D10559F43093CD002093DD
:10022000CC0088E18093C90086E08093CA001AC0A0
:10023000C230D10559F43093D5002093D40088E121
:100240008093D10086E08093D2000CC0239751F4B4
:10025000309335012093340188E18093310186E0A9
:1002600080933201DF91CF910895009741F4E0EC43
:10027000F0E0808185FFFDCF6093C6000895813056
:10028000910541F4E8ECF0E0808185FFFDCF6093BB
:10029000CE0008958230910541F4E0EDF0E08081D8
:1002A00085FFFDCF6093D6000895039739F4E0E30E
:1002B000F1E0808185FFFDCF6093360108950F93B3
:1002C0001F93CF93DF938C01EB016881662331F09C
:1002D0002196C801CADF69916111FBCFDF91CF91EF
:1002E0001F910F91089560E875E280E090E064DF6F
:1002F00060E072E080E090E0E2DF2FEF83E294EFD5
:10030000215080409040E1F700C00000F1CFA1E211
:100310001A2EAA1BBB1BFD010DC0AA1FBB1FEE1F7F
:10032000FF1FA217B307E407F50720F0A21BB30BCA
:10033000E40BF50B661F771F881F991F1A9469F746
:1003400060957095809590959B01AC01BD01CF01A2
:060350000895F894FFCFB0
:06035600746573740000E1
:00000001FF
