:1000000071C000008EC000008CC000008AC00000DB
:1000100088C0000086C0000084C0000082C00000CC
:1000200080C00000F2C000007CC000007AC0000068
:1000300078C0000076C0000074C0000072C00000EC
:1000400070C000006EC000006CC000006AC00000FC
:1000500068C0000066C0000064C0000081C20000EB
:1000600060C000005EC000005CC000005AC000001C
:1000700058C0000056C0000054C0000052C000002C
:1000800050C000004EC000004CC000004AC000003C
:1000900048C0000046C0000044C0000042C000004C
:1000A00040C000003EC000003CC000003AC000005C
:1000B00038C0000036C0000034C0000032C000006C
:1000C00030C000002EC000002CC000002AC000007C
:1000D00028C0000026C0000024C0000022C000008C
:1000E00020C0000011241FBECFEFD1E2DEBFCDBF84
:1000F00000E00CBF12E0A0E0B2E0EAEAF8E000E0C5
:100100000BBF02C007900D92AC30B107D9F722E0C7
:10011000ACE0B2E001C01D92A435B207E1F7FBD21A
:10012000C2C36ECF089580E008958FEF80930101E0
:100130008DB98FE39CE99093A7008093A60038EADD
:100140003093A00022E12093A10090939700809328
:100150009600309390002093910086EB93E090936B
:10016000A9008093A8009093AB008093AA0090937D
:10017000AD008093AC009093990080939800909389
:100180009B0080939A0090939D0080939C0008951B
:10019000EF920F931F93CF93DF93162FD42FC22F7D
:1001A000882329F0B0D19093A9008093A80011234F
:1001B00031F0AED1BFD27093AB006093AA00DD23C3
:1001C00031F0AED1B7D27093AD006093AC00CC23C8
:1001D00031F0AED1AFD270939900609398000023B4
:1001E00031F0AED1A7D270939B0060939A00EE20BD
:1001F00031F0AED19FD270939D0060939C00DF914F
:10020000CF911F910F91EF9008951F920F920FB60B
:100210000F9211240BB60F922F933F934F935F933E
:100220006F937F938F939F93AF93BF93CF93EF93EE
:10023000FF9383B1C0911902C82783B1809319023B
:10024000C0FF1CC0189B0AC0D5D160933A027093BE
:100250003B0280933C0290933D0210C0CBD1209191
:100260003A0230913B02621B730B70934A02609317
:10027000490280913E02816080933E02C1FF1CC012
:10028000199B0AC0B7D160933602709337028093EE
:1002900038029093390210C0ADD1209136023091CE
:1002A0003702621B730B7093480260934702809180
:1002B0003E02826080933E02C2FF1CC01A9B0AC0AD
:1002C00099D16093320270933302809334029093F9
:1002D000350210C08FD12091320230913302621B5F
:1002E000730B709346026093450280913E028460D6
:1002F00080933E02C3FF1CC01B9B0AC07BD160934E
:100300002E0270932F02809330029093310210C01E
:1003100071D120912E0230912F02621B730B7093CA
:1003200044026093430280913E02886080933E02C3
:10033000C4FF1CC01C9B0AC05DD160932A0270934D
:100340002B0280932C0290932D0210C053D1209148
:100350002A0230912B02621B730B7093420260934E
:10036000410280913E02806180933E02C5FF1CC025
:100370001D9B0AC03FD16093260270932702809391
:1003800028029093290210C035D120912602309185
:100390002702621B730B7093400260933F028091AF
:1003A0003E02806280933E02FF91EF91CF91BF9118
:1003B000AF919F918F917F916F915F914F913F91FD
:1003C0002F910F900BBE0F900FBE0F901F9018959E
:1003D000EBE6F0E0808181608083808182608083B1
:1003E0008081846080838081886080838081806157
:1003F0008083808180628083E8E6F0E08081816094
:1004000080837894089580913E02882309F444C043
:10041000F89420913E022093180220FF08C080919A
:10042000490290914A02909317028093160221FF8D
:1004300008C08091470290914802909315028093E2
:10044000140222FF08C080914502909146029093C9
:1004500013028093120223FF08C0809143029091FF
:100460004402909311028093100224FF08C08091EF
:1004700041029091420290930F0280930E0225FF59
:1004800008C080913F029091400290930D028093AA
:100490000C0210923E02789480911802882391F108
:1004A0008091160290911702909325028093240266
:1004B000809114029091150290932302809322025E
:1004C0008091120290911302909321028093200256
:1004D000809110029091110290931F0280931E024E
:1004E00080910E0290910F0290931D0280931C0246
:1004F00080910C0290910D0290931B0280931A023E
:100500001092180208958091240290912502089576
:10051000609122027091230280E090E03CC1089536
:10052000609120027091210280E090E034C1089532
:1005300060911E0270911F0280E090E02CC108952E
:1005400060911C0270911D0280E090E024C108952A
:1005500060911A0270911B0280E090E01CC1089526
:100560001F920F920FB60F9211242F933F938F93E8
:100570009F93AF93BF9380914C0290914D02A091B5
:100580004E02B0914F0230914B0223E0230F2D37E2
:1005900020F40196A11DB11D05C026E8230F029687
:1005A000A11DB11D20934B0280934C0290934D02EC
:1005B000A0934E02B0934F0280915002909151024D
:1005C000A0915202B09153020196A11DB11D8093DA
:1005D000500290935102A0935202B0935302BF91E4
:1005E000AF919F918F913F912F910F900FBE0F90E0
:1005F0001F9018953FB7F894809150029091510246
:10060000A0915202B091530226B5A89B02C02F3F81
:10061000A9F43FBF7894BA2FA92F982F8827820F6B
:10062000911DA11DB11DBC01CD01660F771F881F53
:10063000991F660F771F881F991F08950196A11DA6
:10064000B11DE7CF81E080936E0016BC83E085BDCD
:100650000895CF93DF93EC01CB01AA2797FDA095D6
:10066000BA2F880F991FAA1FBB1F880F991FAA1F97
:10067000BB1F9C01AD01220F331F441F551F220FCA
:10068000331F441F551F60E074E284EF90E0E9D00F
:1006900021503109209759F43093C5002093C400AC
:1006A00088E18093C10086E08093C20028C0C130F9
:1006B000D10559F43093CD002093CC0088E180938C
:1006C000C90086E08093CA001AC0C230D10559F42F
:1006D0003093D5002093D40088E18093D10086E048
:1006E0008093D2000CC0239751F4309335012093AE
:1006F000340188E18093310186E080933201DF91FB
:10070000CF91089560E875E280E090E0A2DF9ADF83
:100710000ADD5ECE0895F6DF80E092E003DD05DDC0
:1007200072DEEE24E39401E021E041E061E081E04B
:100730002FDDF6CF04D06894B1118DC0089570D02C
:1007400088F09F5790F0B92F9927B751A0F0D1F0BA
:10075000660F771F881F991F1AF0BA95C9F712C044
:10076000B13081F077D0B1E0089574C0672F782F51
:100770008827B85F39F0B93FCCF3869577956795B0
:10078000B395D9F73EF490958095709561957F4F1C
:100790008F4F9F4F0895E89409C097FB3EF49095C2
:1007A0008095709561957F4F8F4F9F4F9923A9F04A
:1007B000F92F96E9BB279395F695879577956795D9
:1007C000B795F111F8CFFAF4BB0F11F460FF1BC01D
:1007D0006F5F7F4F8F4F9F4F16C0882311F096E9B0
:1007E00011C0772321F09EE8872F762F05C066235E
:1007F00071F096E8862F70E060E02AF09A95660F17
:10080000771F881FDAF7880F9695879597F90895CF
:1008100057FD9058440F551F59F05F3F71F04795B1
:10082000880F97FB991F61F09F3F79F08795089596
:10083000121613061406551FF2CF4695F1DF08C0B5
:10084000161617061806991FF1CF869571056105D2
:1008500008940895E894BB2766277727CB0197F97A
:100860000895A1E21A2EAA1BBB1BFD010DC0AA1FF1
:10087000BB1FEE1FFF1FA217B307E407F50720F009
:10088000A21BB30BE40BF50B661F771F881F991F84
:100890001A9469F760957095809590959B01AC01CD
:0A08A000BD01CF010895F894FFCFC9
:0C08AA005374617274696E672E2E2E006C
:00000001FF
