:1000000033C1000062C1000060C100005EC1000099
:100010005CC100005AC1000058C1000056C1000078
:1000200054C100000C94560850C100004EC100009D
:100030004CC100004AC1000048C1000046C1000098
:1000400044C1000042C1000040C100003EC10000A8
:100050003CC100003AC1000038C100000C943909CD
:1000600034C1000032C1000030C100002EC10000C8
:100070002CC100002AC1000028C1000026C10000D8
:1000800024C1000022C1000020C100001EC10000E8
:100090001CC100001AC1000018C1000016C10000F8
:1000A00014C1000012C1000010C100000EC1000008
:1000B0000CC100000AC1000008C1000006C1000018
:1000C00004C1000002C1000000C10000FEC0000029
:1000D000FCC00000FAC00000F8C00000F6C000003C
:1000E000F4C00000084AD73B3BCE016E84BCBFFD84
:1000F000C12F3D6C74319ABD56833DDA3D00C77FF8
:1001000011BED9E4BB4C3E916BAAAABE0000008090
:100110003F05A84CCDB2D44EB93836A9020C50B91F
:10012000918688083CA6AAAA2ABE000000803F004B
:100130004E414E494E495459494E46CDCCCC3D0ACC
:10014000D7233C17B7D13877CC2B329595E6241FAF
:10015000B14F0A000020410000C84200401C462068
:10016000BCBE4CCA1B0E5AAEC59D7400407A10F33B
:100170005A00A0724E18090010A5D4E80000E876D5
:1001800048170000E40B54020000CA9A3B0000002C
:10019000E1F505000080969800000040420F000045
:1001A00000A08601000000102700000000E8030006
:1001B0000000006400000000000A000000000001D0
:1001C00000000000002C76D888DC674F0823DFC1D0
:1001D000DFAE59E1B1B796E5E3E453C63AE651998B
:1001E0007696E8E6C28426EB898C9B62ED407C6FB4
:1001F000FCEFBC9C9F40F2BAA56FA5F490055A2A6B
:10020000F75C936B6CF9676DC11BFCE0E40D47FE76
:10021000F520E6B500D0ED902E030094357705006B
:1002200080841E080000204E0A000000C80C3333F2
:1002300033330F986E12831141EF8D2114893BE601
:100240005516CFFEE6DB18D1844B381BF77C1D908A
:100250001DA4BBE424203284725E228100C9F124F3
:10026000ECA1E53D27004C0811241FBECFEFD1E2E1
:10027000DEBFCDBF00E00CBF14E0A0E0B2E0EEEDC9
:10028000FCE200E00BBF02C007900D92AE3CB1074C
:10029000D9F726E0AEECB4E001C01D92A635B20756
:1002A000E1F712E0C8E6D2E000E006C022970109BB
:1002B000FE010BBF0E94EC11C636D10780E0080793
:1002C000A9F70E94BC0D0C946D169ACE00C000C018
:1002D00000C000C000C000C00000089551985098B0
:1002E000599858980895519AF1DF1DC00895509A71
:1002F000EDDF5198EBDF5098E9DF519AE7DF13C04B
:100300000895082E519AE2DF802D0DD0882311F038
:1003100002D0F8CF0895509A519AD8DF5098D6DF7E
:100320005198D4CF08950894881F01C0880F59F0C0
:10033000509A18F40000519802C0519A00C0C6DFCC
:100340005098C4DFF3CF509A5198C0DF5098489B23
:10035000FECF8827499981E0B9DF9927089588273A
:1003600001C081E071E0509A5198B0DF5098AEDF43
:10037000489BFECF889449990894771FA0F7509A1C
:10038000813011F0519801C0519AA0DF5098489BDC
:10039000FECF9CDF872F9927089580ECB2DF83E1A1
:1003A000C2DF87E0C0CF0895CF93C82F80EC9FDFD6
:1003B0008C2FB9DF81EC9BDFD2DFCF910895CF93F3
:1003C000DF93D82FC62F80EC9CDF8D2FACDF8C2FD6
:1003D000AADFA1DFDF91CF91089586E2E5DF682FE4
:1003E0006D7F86E2ECDF86E2DFDF682F626086E207
:1003F000E6CF0895CF92DF92EF92FF92CF93DF93F3
:10040000ECDFCAE5D2E00AC08FE99FE00197F1F77F
:1004100000C000002197209709F449C080E0C4DFA4
:1004200081FFF2CF80EC6DDF81E07DDF81EC5FDF6B
:1004300098DFF82E96DFD82F92DFC82F6CDFCDDF44
:100440004F2D552747FD5095742F66272D2F3327A5
:1004500027FD3095622B732B882777FD8095982F89
:100460000E94980F6B017C016C2F772767FD7095B8
:100470007595679575956795759567957595679564
:10048000882777FD8095982F0E94980F20E030E014
:1004900040E85DE30E9404119B01AC01C701B60175
:1004A0000E94300E562F472F382F292F04C050E0BE
:1004B00040EC39E724EC652F742F832F922FDF91C6
:1004C000CF91FF90EF90DF90CF9008954F925F9281
:1004D0006F927F928F929F92AF92BF92CF92DF9254
:1004E000EF92FF9280E192E068D2412C512C3201D0
:1004F000530142011DC07EDF6B017C0120E030EC26
:1005000049E754EC0E94F60E882391F0A70196016A
:10051000C501B4010E94300E4B015C0120E030E0C7
:1005200040E85FE3C301B2010E94300E2B013C01A1
:10053000EAD6603D774081059105ECF2A301920176
:10054000C501B4010E94FD0E6B017C0187E492E0BD
:100550002FD2C701B60157D288E692E02ED2C7014A
:10056000B601FF90EF90DF90CF90BF90AF909F903B
:100570008F907F906F905F904F90089586E214DF88
:10058000682F606886E21BCF0895CF93C82F88300C
:1005900008F0C7E086E208DF877CCC0FCC0FCC0FD9
:1005A000682F6C2B86E20BDFCF91089597DE8CE0ED
:1005B000FBDE843CC9F48BE692E0FFD1DFDF87E00D
:1005C000E4DFEBDE83DF6093CF047093D00480938D
:1005D000D1049093D20420E030EC49E754EC0E941F
:1005E000F60E882369F007C08AE892E0E6D180E041
:1005F0008093CE04089583EA92E0DFD181E0F8CFC2
:1006000084EC92E0DAD180E0F3CF4F925F926F9268
:100610007F928F929F92AF92BF92CF92DF92EF9292
:10062000FF92CF93DF938CE36CDE83E07CDE73DE9E
:100630008DE35DDE96DE8093EB0493DE8093EA0427
:1006400090DE8093E9048DDE8093E8048ADE809357
:10065000E70485DE8093E6045EDE6091EB0470E0E3
:10066000762F66278091EA04682B7093E5046093E7
:10067000E404E090E704F12CFE2CEE248091E604E3
:10068000E82AF092E304E092E204C091E904D0E0A9
:10069000DC2FCC278091E804C82BD093E104C093D1
:1006A000E0044090040250900502609006027090B1
:1006B0000702882777FD8095982F0E94980FA30145
:1006C00092010E94FD0E20E030E048EC52E40E94CE
:1006D00004114B015C016093DC047093DD04809392
:1006E000DE049093DF04B701882777FD8095982F6B
:1006F0000E94980FA30192010E94FD0E20E030E0BD
:1007000048EC52E40E9404116B017C016093D80410
:100710007093D9048093DA049093DB04BE01882798
:1007200077FD8095982F0E94980F209100023091BC
:10073000010240910202509103020E94FD0E20E04E
:1007400030E048EC52E40E9404116093D4047093AA
:10075000D5048093D6049093D704A5019401C701D2
:10076000B6010E94A30E25E33AEF4EE05EE30E943D
:10077000300E6B017C0120E030E0A9010E94F60EF2
:10078000882354F42BED3FE049EC50E4C701B60157
:100790000E94300E6B017C012BED3FE049EC50E4F0
:1007A000C701B6010E94F910181654F42BED3FE072
:1007B00049EC50E4C701B6010E942F0E6B017C0189
:1007C00020E030E044E353E4C701B6010E94041185
:1007D0002BED3FE049E450E40E94FD0EDF91CF9104
:1007E000FF90EF90DF90CF90BF90AF909F908F9051
:1007F0007F906F905F904F900895CF93C82F8CE3B8
:1008000072DD81E090DD8C2F8EDD85DDC093D30419
:10081000C03809F45FC048F4C03451F1C03609F45F
:1008200040C0C03209F0B9C00AC0C03C09F484C05D
:10083000C03E09F49AC0C03A09F0AFC064C080E07D
:1008400090E8A9E8B4E48093040290930502A09391
:100850000602B093070280E090E0A5E7B4E480933D
:10086000000290930102A0930202B093030295C08C
:1008700080E090ECA5E5B4E4809304029093050237
:10088000A0930602B093070280E090E0AEE3B4E4E8
:100890008093000290930102A0930202B09303029E
:1008A0007CC080E090E8A7E2B4E4809304029093D7
:1008B0000502A0930602B093070280E090E0A6E153
:1008C000B4E48093000290930102A0930202B093DB
:1008D000030263C080E090E0A1EEB3E480930402E1
:1008E00090930502A0930602B093070280E090E087
:1008F000A8ECB3E48093000290930102A09302025B
:10090000B09303024AC080E090E0A8ECB3E4809387
:10091000040290930502A0930602B093070280E0C0
:1009200090E0AFE7B3E48093000290930102A093BC
:100930000202B093030231C080E090E0A5EAB3E484
:100940008093040290930502A0930602B0930702DD
:1009500080E090E8A3E9B3E4809300029093010261
:10096000A0930202B093030218C080E090E0A6E6D4
:10097000B3E48093040290930502A0930602B0931F
:10098000070280E090E0ADE4B3E48093000290932E
:100990000102A0930202B0930302CF9108958CE369
:1009A000A2DC82E0C0DC80E0BEDC80E226CF0895DD
:1009B000BC0180E090E08DC50895BC0180E090E02E
:1009C00088D564EE72E080E090E083C50895CF930F
:1009D000DF93CDB7DEB72A970FB6F894DEBF0FBE10
:1009E000CDBF4AE0BE016F5F7F4F0E943912CE013A
:1009F0000196DEDF2A960FB6F894DEBF0FBECDBF9C
:100A0000DF91CF9108950F931F93CF93DF93CDB7CD
:100A1000DEB764970FB6F894DEBF0FBECDBF8E0170
:100A20000F5F1F4F25E04AE00E94F011C801C0DFB0
:100A300064960FB6F894DEBF0FBECDBFDF91CF91A5
:100A40001F910F9108952F9A2FEF80E792E0215088
:100A500080409040E1F700C000002F9808952F9A41
:100A60002FEF84E39CE0215080409040E1F700C0EC
:100A700000002F9808950F931F93CF93DF93CDB766
:100A8000DEB729970FB6F894DEBF0FBECDBF8B013E
:100A9000FE013196BE01665F7F4FD8012D913C91DA
:100AA000AC01420F531FDA014C9141932F5F3F4F2E
:100AB000D8012D933C93E617F70779F7CE010196FD
:100AC0000E94101229960FB6F894DEBF0FBECDBF5C
:100AD000DF91CF911F910F910895CF93DF93CDB701
:100AE000DEB72A970FB6F894DEBF0FBECDBFFC016C
:100AF0008385898384858A8385858B8386858C839A
:100B000080898D8381898E8382898F831886CE0127
:100B100001960E9410122A960FB6F894DEBF0FBEFF
:100B2000CDBFDF91CF910895CF93DF93CDB7DEB7DF
:100B30002A970FB6F894DEBF0FBECDBFFC018385A8
:100B4000898384858A8387858B8385858C83868545
:100B50008D8380898E8381898F8382898887198696
:100B6000CE0101960E9410122A960FB6F894DEBFAD
:100B70000FBECDBFDF91CF9108950F931F93CF93F9
:100B8000DF93CDB7DEB72A970FB6F894DEBF0FBE5E
:100B9000CDBF8B01DB012D913C9111972F5F3F4F12
:100BA0002D933C93FE013196BE01655F7F4FD801C6
:100BB0002D913C91AC01420F531FDA014C914193AE
:100BC0002F5F3F4FD8012D933C93E617F70779F736
:100BD0009B818C812D812B839C838D83CE010196FB
:100BE0000E9410122A960FB6F894DEBF0FBECDBF3A
:100BF000DF91CF911F910F910895CF93DF93CDB7E0
:100C0000DEB72B970FB6F894DEBF0FBECDBFFC0149
:100C1000808D8983818D8A83828D8B83838D8C8364
:100C2000848D8D83868D8E83878D8F8380A1888729
:100C30001986CE0101960E9410122B960FB6F894D9
:100C4000DEBF0FBECDBFDF91CF910895CF93DF936D
:100C5000CDB7DEB72B970FB6F894DEBF0FBECDBF72
:100C6000FC01818D8983828D8A83858D8B83838D21
:100C70008C83848D8D83868D8E83878D8F8380A1D9
:100C800088871986CE0101960E9410122B960FB606
:100C9000F894DEBF0FBECDBFDF91CF9108950F93C3
:100CA0001F93CF93DF93CDB7DEB72B970FB6F89492
:100CB000DEBF0FBECDBF8B01DB012D913C911197A3
:100CC0002D5F3F4F2D933C93FE013196BE01645F33
:100CD0007F4FD8012D913C91AC01420F531FDA0197
:100CE0004C9141932F5F3F4FD8012D933C93E617D2
:100CF000F70779F79C818D812E812C839D838E83CC
:100D0000CE0101960E9410122B960FB6F894DEBF0A
:100D10000FBECDBFDF91CF911F910F910895CF935B
:100D2000DF931F921F92CDB7DEB7FB012081318187
:100D3000A9014D5F5F4F51834083DC01A40FB51FB4
:100D40004C914983A9014C5F5F4F51834083DC0183
:100D5000A40FB51F8C918A832B5F3F4F3183208373
:100D6000CE0101960E9413120F900F90DF91CF9148
:100D700008950F931F93CF93DF9300D01F92CDB7A9
:100D8000DEB78B01FE013196BE016B5F7F4FD8014C
:100D90002D913C91AC01420F531FDA014C914193CC
:100DA0002F5F3F4FD8012D933C93E617F70779F754
:100DB000CE0101960E9410120E94650FCB010F9088
:100DC0000F900F900F90DF91CF911F910F91089589
:100DD000AF92BF92CF92DF92EF92FF920F931F9349
:100DE000CF93DF93C12C0F2EF3E3AF2EF5E0BF2E90
:100DF000F02DCDEED4E0DD24D3940F2EF4E3EF2ECE
:100E0000F5E0FF2EF02D81E090E03CD380938A0541
:100E1000909109028913F4C01092890510928805F7
:100E200000E010E081E090E02DD3F801E758FA4FA0
:100E3000808320918805309189052F5F3F4F309343
:100E40008905209388052530310514F48901EACFFE
:100E500060910C0270910D0287EE92E00E943012B8
:100E60009093850580938405892B69F610928905F6
:100E70001092880500E010E081E090E003D3F801D3
:100E8000ED5CFA4F808380918805909189050196E9
:100E900090938905809388058634910514F48C011C
:100EA000EBCF8DEE92E089DDF501208130910802D3
:100EB000231759F0FE01D7012193CF018D5E944095
:100EC0002D912313F9CFFC0102C0E0E0F0E0E351E3
:100ED000FB4F8091EC048083FE0101900020E9F734
:100EE0003197ED5EF440F0938305E0938205109214
:100EF00089051092880581E090E0909387058093A2
:100F0000860560910E0270910F0280910A02909105
:100F10000B02B1DD60939F057093A0058093A1053E
:100F20009093A20580910A0290910B02D6DD8091E8
:100F30000A0290910B0261DE80910A0290910B02ED
:100F4000F3DD60939B0570939C0580939D059093C2
:100F50009E0580910A0290910B0278DE60939705BE
:100F6000709398058093990590939A0560910E026D
:100F700070910F0280910A0290910B02FEDD609346
:100F800093057093940580939505909396056091D1
:100F90000E0270910F0280910A0290910B027FDE87
:100FA00060938F05709390058093910590939205BF
:100FB00060910E0270910F0280910A0290910B02D3
:100FC000AEDE909381058093800560910E02709152
:100FD0000F0280910A0290910B02CBDEBC018827A0
:100FE00077FD8095982FA4D760938B0570938C051F
:100FF00080938D0590938E0581E193E0DEDCCD2C0E
:101000002091840530918505232B09F0FCCE8C2D91
:10101000DF91CF911F910F91FF90EF90DF90CF90D4
:10102000BF90AF90089560E875E281E090E0A7D1AD
:1010300083E293E0C2DCCCDE8FE293E0B9DC609126
:101040008B0570918C0580918D0590918E053DD713
:10105000CB01BDDC8AE493E0B0DC81E008956091CF
:101060009B0570919C0580919D0590919E0508952A
:1010700060919705709198058091990590919A05D6
:10108000089560918B0570918C0580918D059091EC
:101090008E051BD7CB010895809188059091890515
:1010A0000196909387058093860508951F920F926D
:1010B0000FB60F9211240BB60F922F933F934F93BD
:1010C0005F936F937F938F939F93AF93BF93CF93D0
:1010D000EF93FF9383B1C091A305C82783B1809399
:1010E000A305C0FF1CC0189B0AC01AD16093B805A5
:1010F0007093B9058093BA059093BB0510C010D1C9
:101100002091B8053091B905621B730B7093C80527
:101110006093C7058091BC0581608093BC05C1FFC9
:101120001CC0199B0AC0FCD06093B4057093B50530
:101130008093B6059093B70510C0F2D02091B40506
:101140003091B505621B730B7093C6056093C5059E
:101150008091BC0582608093BC05C2FF1CC01A9BB5
:101160000AC0DED06093B0057093B1058093B205DC
:101170009093B30510C0D4D02091B0053091B10543
:10118000621B730B7093C4056093C3058091BC050B
:1011900084608093BC05C3FF1CC01B9B0AC0C0D0E9
:1011A0006093AC057093AD058093AE059093AF0549
:1011B00010C0B6D02091AC053091AD05621B730B09
:1011C0007093C2056093C1058091BC0588608093CF
:1011D000BC05C4FF1CC01C9B0AC0A2D06093A8051C
:1011E0007093A9058093AA059093AB0510C098D081
:1011F0002091A8053091A905621B730B7093C0055F
:101200006093BF058091BC0580618093BC05C5FFDC
:101210001CC01D9B0AC084D06093A4057093A505D3
:101220008093A6059093A70510C07AD02091A405BD
:101230003091A505621B730B7093BE056093BD05CD
:101240008091BC0580628093BC05FF91EF91CF91A6
:10125000BF91AF919F918F917F916F915F914F91CE
:101260003F912F910F900BBE0F900FBE0F901F90CC
:1012700018951F920F920FB60F9211242F933F9340
:101280008F939F93AF93BF938091CA059091CB05A5
:10129000A091CC05B091CD053091C90523E0230F75
:1012A0002D3720F40196A11DB11D05C026E8230F9E
:1012B0000296A11DB11D2093C9058093CA05909384
:1012C000CB05A093CC05B093CD058091CE05909130
:1012D000CF05A091D005B091D1050196A11DB11DFA
:1012E0008093CE059093CF05A093D005B093D10500
:1012F000BF91AF919F918F913F912F910F900FBE12
:101300000F901F9018952FB7F8946091CA057091AF
:10131000CB058091CC059091CD052FBF7894089591
:101320003FB7F8948091CE059091CF05A091D0055C
:10133000B091D10526B5A89B02C02F3FA9F43FBFAD
:101340007894BA2FA92F982F8827820F911DA11D5D
:10135000B11DBC01CD01660F771F881F991F660F55
:10136000771F881F991F08950196A11DB11DE7CF12
:1013700081E080936E0016BC83E085BD0895CF9315
:10138000DF93EC01CB01AA2797FDA095BA2F880F18
:10139000991FAA1FBB1F880F991FAA1FBB1F9C0163
:1013A000AD01220F331F441F551F220F331F441F4F
:1013B000551F60E074E284EF90E0ECD721503109D2
:1013C000209759F43093C5002093C40088E180939E
:1013D000C10086E08093C20028C0C130D10559F415
:1013E0003093CD002093CC0088E18093C90086E043
:1013F0008093CA001AC0C230D10559F43093D50089
:101400002093D40088E18093D10086E08093D200BD
:101410000CC0239751F4309335012093340188E1B7
:101420008093310186E080933201DF91CF9108955E
:10143000009741F4E0ECF0E0808185FFFDCF609300
:10144000C60008958130910541F4E8ECF0E0808118
:1014500085FFFDCF6093CE0008958230910541F461
:10146000E0EDF0E0808185FFFDCF6093D600089528
:10147000039739F4E0E3F1E0808185FFFDCF6093CD
:1014800036010895009741F4E0ECF0E08081882374
:10149000ECF78091C60008958130910541F4E8ECA5
:1014A000F0E080818823ECF78091CE0008950297C8
:1014B00041F4E0EDF0E080818823ECF78091D600E4
:1014C0000895E0E3F1E080818823ECF78091360114
:1014D00008950F931F93CF93DF938C01EB016881E5
:1014E000662331F02196C801A3DF69916111FBCF1A
:1014F000DF91CF911F910F9108954F925F926F925C
:101500007F928F929F92AF92BF92CF92DF92EF9293
:10151000FF920F931F93CF93DF93CDB7DEB7609702
:101520000FB6F894DEBF0FBECDBF2B013C012D8757
:101530003E874F87588BED82FE820F8318872BEDF5
:101540003FE049E450E4C801B7015ED620E030E056
:1015500044E353E452D469837A838B839C832BEDD9
:101560003FE049E450E4C301B2014ED620E030E050
:1015700044E353E442D49B01AC0169817A818B81BD
:101580009C816DD320E030E040E05FE33DD69FD604
:1015900069837A838B839C83C801B7012BD46D83C5
:1015A0007E838F839887C301B20124D469877A87A9
:1015B0008B879C872BED3FE049E450E4C601B501E1
:1015C00023D620E030E044E353E417D42B013C0160
:1015D0002BED3FE049E450E46D857E858F85988949
:1015E00013D620E030E044E353E407D49B01AC0180
:1015F000C301B20134D320E030E040E05FE304D621
:1016000066D69B01AC0100D62B013C0129853A85A9
:101610004B855C856D817E818F819885F5D59B0199
:10162000AC01C301B201F0D54B015C0129813A81C3
:101630004B815C81CA01B901E7D59B01AC01C501B1
:10164000B4010ED36B017C019B01AC0160E070E042
:1016500080E89FE304D345D64B015C01C701B60186
:1016600040D6A50194016FD39B01AC01F9D220E7CC
:101670003DE642EC5AE4C8D560960FB6F894DEBF5A
:101680000FBECDBFDF91CF911F910F91FF90EF90D3
:10169000DF90CF90BF90AF909F908F907F906F9092
:1016A0005F904F9008954F925F926F927F928F92CA
:1016B0009F92AF92BF92CF92DF92EF92FF920F93E1
:1016C0001F93CF93DF93CDB7DEB764970FB6F8942F
:1016D000DEBF0FBECDBF69837A838B839C832D834E
:1016E0003E834F83588786D369877A878B879C8709
:1016F000C801B701ECD56D877E878F87988B69818C
:101700007A818B819C81E3D569837A838B839C83E7
:10171000C801B7016FD32B013C012D813E814F8160
:101720005885C601B5019BD24B015C0163D36D8323
:101730007E838F839887C501B401C9D5698B7A8B65
:101740008B8B9C8B2D853E854F85588969857A8545
:101750008B859C8559D54B015C01A3019201698160
:101760007A818B819C8150D52D813E814F81588516
:101770004BD59B01AC01C501B40171D24B015C0199
:1017800029893A894B895C89C301B2013DD5A501FC
:101790009401D9D26B017C012BED3FE049EC50E480
:1017A0002CD301D42BED3FE049EC50E42DD59B0127
:1017B000AC01C701B60153D220E030E044E353E46A
:1017C00023D52BED3FE049E450E417D364960FB6E0
:1017D000F894DEBF0FBECDBFDF91CF911F910F9167
:1017E000FF90EF90DF90CF90BF90AF909F908F9041
:1017F0007F906F905F904F900895CF93DF93E0912B
:101800005206F0915306DF01AA0FBB1FAA0FBB1FA0
:10181000ED01CE5ED94F688379838A839B83AE5274
:10182000BA4F2D933D934D935C9313973196F0935C
:101830005306E0935206DF91CF9108954F925F9245
:101840006F927F928F929F92AF92BF92CF92DF92D0
:10185000EF92FF920F931F93CF93DF9300D01F92CD
:10186000CDB7DEB7B5DAFBDB20E030E0A901BED2B0
:101870008823C1F3FDDB20E030E0A901B7D2882343
:1018800089F3EDDB2B013C01F3DB69837A838B83E6
:101890009C838AE494E08CD8C301B201B4D881E877
:1018A00094E086D8C301B201AED88DE093E085D82C
:1018B00000E010E0B801882777FD8095982F38D395
:1018C0002BED3FE049EC50E49FD420E030E040E8CD
:1018D0005DE39AD46B017C018DD220E030E84BEBC4
:1018E00055E48BD29B01AC01C301B201B8D14B01CD
:1018F0005C01C701B601EBD420E030E84BEB55E4C6
:101900007CD229813A814B815C81AAD16B017C0117
:101910009B01AC01C501B40170DFC501B40173D8EE
:101920008EE894E045D8C701B6016DD886EE92E006
:1019300044D80F5F1F4F0031110509F0BBCF109243
:101940005306109252060F900F900F900F90DF9158
:10195000CF911F910F91FF90EF90DF90CF90BF90AC
:10196000AF909F908F907F906F905F904F90089571
:10197000AF92BF92CF92DF92EF92FF920F931F939D
:1019800077DB5B016C016BDB7B018C018091520684
:1019900090915306880F991F880F991FFC01EE52F2
:1019A000FA4F2081318142815381FC01EE5EF94F73
:1019B000608171818281938176DE1F910F91FF900A
:1019C000EF90DF90CF90BF90AF9008954F925F92CD
:1019D0006F927F92AF92BF92CF92DF92EF92FF927F
:1019E0000F931F93CF93DF9300D01F92CDB7DEB735
:1019F0008091520690915306880F991F880F991F66
:101A0000FC01EE52FA4FA080B180C280D380FC016D
:101A1000EE5EF94F408051806280738029DB6983DC
:101A20007A838B839C831BDB8301720129813A813A
:101A30004B815C8162DD0F900F900F900F90DF91D2
:101A4000CF911F910F91FF90EF90DF90CF90BF90BB
:101A5000AF907F906F905F904F900895B7DF20E038
:101A600030E040E050E4C2D188234CF4809152062B
:101A7000909153060196909353068093520680915D
:101A8000520690915306419724F0109253061092FB
:101A900052060895809152069091530608959093AE
:101AA000530680935206089580E190E00895880FD0
:101AB000991F880F991FFC01EE5EF94F60817181BB
:101AC000828193810895880F991F880F991FFC01C7
:101AD000EE52FA4F6081718182819381089560E8AE
:101AE00075E280E090E04BDC81E994E00E94DD0447
:101AF0003FDC0E94D6020E94CF0495DA2FEF83EDDF
:101B000090E3215080409040E1F700C0000096DE55
:101B10008FEA94E00E94DD040E942F052FEF84E3FA
:101B20009CE0215080409040E1F700C000000E94FE
:101B300023052FEF84E39CE0215080409040E1F7A3
:101B400000C000000E9423052FEF84E39CE0215099
:101B500080409040E1F700C000000E9423052FEF75
:101B600084E39CE0215080409040E1F700C00000F9
:101B70000E942F0581E00895B2DFC5DB29D98823B3
:101B800009F461C06BDF89EC94E00E94D8048BEC0F
:101B900094E00E94D80463DA0E9403058BEC94E081
:101BA0000E94D80465DA0E9403058BEC94E00E9441
:101BB000D80467DA0E94E7048BEC94E00E94D80412
:101BC0000E94FA010E9403058BEC94E00E94D80465
:101BD000CFDE0E9403058BEC94E00E94D8040E94A3
:101BE00005036B017C010E9403058BEC94E00E94CD
:101BF000D804BEDE9B01AC01C701B60130D00E9403
:101C000003058BEC94E00E94D80444DF0E94E704B3
:101C10008BEC94E00E94D804D9DE0E9403058BEC83
:101C200094E00E94D80436DF42DF0E9403058BEC6B
:101C300094E00E94D8042EDF46DF0E9403058BEC5F
:101C400094E00E94DD045FDB25DF7C012DDF8E1533
:101C50009F050CF093CF80E090E021DF8FCF5058AC
:101C6000BB27AA270ED063C22CD230F031D220F08D
:101C700031F49F3F11F41EF4FCC10EF4E095E7FB34
:101C8000C9C1E92F76D280F3BA17620773078407B8
:101C9000950718F071F49EF5A5C20EF4E0950B2E91
:101CA000BA2FA02D0B01B90190010C01CA01A001AE
:101CB0001124FF27591B99F0593F50F4503E68F109
:101CC0001A16F040A22F232F342F4427585FF3CF4A
:101CD000469537952795A795F0405395C9F77EF41B
:101CE0001F16BA0B620B730B840BBAF09150A1F064
:101CF000FF0FBB1F661F771F881FC2F70EC0BA0FEA
:101D0000621F731F841F48F4879577956795B79571
:101D1000F7959E3F08F0B3CF9395880F08F0992769
:101D2000EE0F979587950895CCD158F080E891E013
:101D300009F49EEFCDD128F040E851E059F45EEF70
:101D400009C097C14FC2E92FE07813D268F3092E7A
:101D5000052AC1F3261737074807590738F00E2E12
:101D600007F8E02569F0E025E0640AC0EF6307F8B2
:101D7000009407FADB01B9019D01DC01CA01AD0144
:101D8000EF934AD0D4D10AD05F91552331F02BED97
:101D90003FE049E450FD49EC63CF0895DF93DD2730
:101DA000B92FBF7740E85FE31616170648075B07B1
:101DB00010F4D92F22D29F938F937F936F93CFD21A
:101DC000E4EEF0E059D1B3D12F913F914F915F9163
:101DD00027D2DD2349F09058A2EA2AED3FE049ECF2
:101DE0005FE3D0785D274DDFDF91A1C1EFD008F42C
:101DF00081E0089575D1E395ABC10CD098C168D14D
:101E000040F05FD130F021F45F3F19F003C1511170
:101E1000EAC12FC1AED198F39923C9F35523B1F389
:101E2000951B550BBB27AA2762177307840738F049
:101E30009F5F5F4F220F331F441FAA1FA9F333D0A8
:101E40000E2E3AF0E0E830D091505040E695001C5C
:101E5000CAF729D0FE2F27D0660F771F881FBB1F18
:101E6000261737074807AB07B0E809F0BB0B802DF2
:101E7000BF01FF2793585F4F2AF09E3F510568F03E
:101E8000C9C0B1C15F3FECF3983EDCF3869577950E
:101E90006795B795F7959F5FC9F7880F911D969540
:101EA000879597F90895E1E0660F771F881FBB1F9C
:101EB000621773078407BA0720F0621B730B840B49
:101EC000BA0BEE1F88F7E095089504D06894B1111D
:101ED0008AC1089556D188F09F5790F0B92F99275D
:101EE000B751A0F0D1F0660F771F881F991F1AF025
:101EF000BA95C9F712C0B13081F074D1B1E008953C
:101F000071C1672F782F8827B85F39F0B93FCCF3BC
:101F1000869577956795B395D9F73EF4909580951A
:101F2000709561957F4F8F4F9F4F0895E89409C03A
:101F300097FB3EF490958095709561957F4F8F4FFC
:101F40009F4F9923A9F0F92F96E9BB279395F69512
:101F5000879577956795B795F111F8CFFAF4BB0F90
:101F600011F460FF1BC06F5F7F4F8F4F9F4F16C0F4
:101F7000882311F096E911C0772321F09EE8872F7E
:101F8000762F05C0662371F096E8862F70E060E03A
:101F90002AF09A95660F771F881FDAF7880F9695B3
:101FA000879597F9089507D180F09F3740F49111F4
:101FB0000EF019C160E070E080E89FEB089526F410
:101FC0001B16611D711D811D2BC045C0990F000896
:101FD000550FAA0BE0E8FEEF16161706E807F907FB
:101FE000C0F012161306E407F50798F0621B730B96
:101FF000840B950B39F40A2661F0232B242B252B17
:1020000021F408950A2609F4A140A6958FEF811DB9
:10201000811D089597F99F6780E870E060E008955A
:10202000882371F4772321F09850872B762F07C0EF
:10203000662311F499270DC09051862B70E060E063
:102040002AF09A95660F771F881FDAF7880F969502
:10205000879597F908959F3F31F0915020F4879527
:1020600077956795B795880F911D9695879597F900
:1020700008959FEF80EC0895DF93CF931F930F9304
:10208000FF92EF92DF927B018C01689405C0DA2EFB
:10209000EF01C6D0FE01E894A591259135914591B7
:1020A0005591AEF3EF01EDDDFE019701A801DA9441
:1020B00079F7DF90EF90FF900F911F91CF91DF9113
:1020C000089500240A94161617061806090608959E
:1020D00000240A9412161306140605060895C9CFA3
:1020E00050D0E8F3E894E0E0BB279F57F0F02AEDEA
:1020F0003FE049EC06C0EE0FBB0F661F771F881F3D
:1021000028F0B23A62077307840728F0B25A620BCC
:10211000730B840BE3959A9572F7803830F49A9597
:10212000BB0F661F771F881FD2F7904896CF092EE6
:102130000394000C11F4882352F0BB0F40F4BF2B22
:1021400011F460FF04C06F5F7F4F8F4F9F4F089562
:10215000EF93E0FF06C0A2EA2AED3FE049EC5FEB17
:1021600090DDE5DF0F90039401FC9058E1E1F1E090
:1021700000C157FD9058440F551F59F05F3F71F053
:102180004795880F97FB991F61F09F3F79F08795DE
:102190000895121613061406551FF2CF4695F1DF67
:1021A00008C0161617061806991FF1CF86957105F7
:1021B000610508940895E5DFA0F0BEE7B91788F43B
:1021C000BB279F3860F41616B11D672F782F88271C
:1021D000985FF7CF869577956795B11D939596395A
:1021E000C8F30895E894BB2766277727CB0197F9B2
:1021F0000895ECDE08F48FEF08959B01AC0160E0D8
:1022000070E080E89FE3F9CD0BD091CF5ADF28F042
:102210005FDF18F0952309F0FDCE2BCF1124E3CF1B
:10222000A8DFA0F3959FD1F3950F50E0551F629F53
:10223000F001729FBB27F00DB11D639FAA27F00D1F
:10224000B11DAA1F649F6627B00DA11D661F829F46
:102250002227B00DA11D621F739FB00DA11D621F2B
:10226000839FA00D611D221F749F3327A00D611D48
:10227000231F849F600D211D822F762F6A2F11242A
:102280009F5750408AF0E1F088234AF0EE0FFF1F7D
:10229000BB1F661F771F881F91505040A9F79E3FB4
:1022A000510570F0B7CE9FCF5F3FECF3983EDCF363
:1022B000869577956795B795F795E7959F5FC1F7F1
:1022C000FE2B880F911D9695879597F908959F93FA
:1022D00007DF0F9007FCEE5F3BCF11F40EF4C9CE81
:1022E000BACE4FDFD0F39923D9F3CEF39F57550BD6
:1022F00087FF38D00024A0E640EA90018058569528
:10230000979528F4805C660F771F881F20F02617AA
:102310003707480730F4621B730B840B20293129DF
:102320004A2BA69517940794202531254A2758F75C
:10233000660F771F881F20F026173707480730F4ED
:10234000620B730B840B200D311D411DA09581F78D
:10235000B901842F9158880F9695879508959B0110
:10236000AC0152CF91505040660F771F881FD2F7B3
:1023700008959F938F937F936F93FF93EF939B01A8
:10238000AC0142DFEF91FF9177DE2F913F914F91AA
:102390005F913ACFA1E21A2EAA1BBB1BFD010DC013
:1023A000AA1FBB1FEE1FFF1FA217B307E407F50705
:1023B00020F0A21BB30BE40BF50B661F771F881FE1
:1023C000991F1A9469F760957095809590959B0177
:1023D000AC01BD01CF0108950790F691E02D19944D
:1023E000EF920F931F93CF93DF93E80147FF02C053
:1023F00034E101C034E0E42FFF27E7FDF095F7FF5B
:1024000003C0F195E195F109E32E022F2E2FAE01C5
:102410005BD0CE01DF91CF911F910F91EF90089586
:1024200066277727CEC1FC0188279927E894219158
:102430002032E9F3293010F02E30C8F32B3239F076
:102440002D3231F4689403C01ED0820F911D21916A
:1024500020532A30C8F31EF4909581959F4F08951C
:10246000FB01DC018D91019080190110D9F3990BCA
:102470000895BB274A3031F4992322F4BDE29095A8
:1024800081959F4F09C07AE0979F902D879F802D5F
:10249000910D11240895BB27FB015527AA27880F0A
:1024A000991FAA1FA41710F0A41B83955051B9F7C8
:1024B000A05DAA3308F0A95DA193009779F7B11147
:1024C000B1931192CB01DDC36F927F929F92AF9235
:1024D000BF92CF92DF92EF92FF920F931F93CF9311
:1024E000DF93CDB7DEB729970FB6F894DEBF0FBEE6
:1024F000CDBF6A01B22E102F0C3320F4FF24F394C9
:10250000F00E02C04CE3F42E0F2D27E0AE014F5F1A
:102510005F4FBFD27981272F2970213031F0E1FC44
:1025200006C0E0FC06C060E005C06DE203C06BE2DF
:1025300001C060E2AE2DA07173FF36C0662311F0BA
:1025400084E001C083E08B1510F4B81A01C0B12CEF
:10255000A1110BC0F6018B2D90E2882319F0919305
:102560008150FBCFCB0CD11CB12C662331F0F6018E
:10257000608396012F5F3F4F6901C6010396E2FE1B
:1025800005C02EE4F601208331E404C02EE6F601F6
:10259000208331E631832283FC012B2D30E222237C
:1025A000F1F131932150FBCF72FF40C0662311F04F
:1025B00084E001C083E08B1510F4B81A01C0B12C7F
:1025C000A1110BC0F6018B2D90E2882319F0919395
:1025D0008150FBCFCB0CD11CB12C662331F0F6011E
:1025E000608396012F5F3F4F6901C6010396E2FEAB
:1025F00007C029E4F60120832EE4218326E406C0E7
:1026000029E6F60120832EE6218326E62283FC01BB
:102610002B2D30E2222319F031932150FBCFFC0106
:10262000EB0DF11D10828EEF9FEFB7C0B1E061118D
:1026300001C0B0E04B2F50E01816190624F49C019D
:102640002F5F3F4F02C021E030E0240F351F1123E0
:1026500029F0412F50E04F5F5F4F02C040E050E053
:10266000420F531F2B2D30E04217530714F4B41AB6
:1026700001C0B12C2E2D287159F4F6012B2D30E21A
:10268000222319F031932150FBCFCB0CD11CB12C5C
:10269000BB2331F0F601608396012F5F3F4F690144
:1026A000A1110BC0F6012B2D30E3222319F0319339
:1026B0002150FBCFCB0CD11CB12CF80E0A81372F47
:1026C0003071A32E74FF03C0013309F4FA941F1470
:1026D0002CF42F2D293018F028E001C021E0682FBC
:1026E000392F97FF02C060E030E0462F532F612C56
:1026F000712C3EE2932EBC01621B71099B01DC012F
:10270000A41BB50BE1E0F0E0EC0FFD1FAE0FBF1F07
:10271000E12EF12CF194E194F1084F3FFFEF5F07B8
:1027200031F4F6019082B6016F5F7F4F6B01841721
:1027300095074CF02417350734F4BD01660D771D5D
:10274000FB01118101C010E341505109FFEF6F1AE5
:102750007F0AB6016F5F7F4F4E155F0524F0F601CB
:1027600010836B01DACF4817590739F4063320F488
:10277000053319F4A11001C011E3F6011083FB0128
:102780008B2D90E2882319F091938150FBCFFB01B0
:10279000EB0DF11D108280E090E029960FB6F894C1
:1027A000DEBF0FBECDBFDF91CF911F910F91FF9084
:1027B000EF90DF90CF90BF90AF909F907F906F9001
:1027C00008958F929F92AF92BF92CF92DF92EF9235
:1027D000FF920F931F93CF93DF938B0161157105C8
:1027E00021F0DB018C9311969C93EC015E01BFEF0D
:1027F000AB1ABB0A7501C8808C2D90E022D2892BC0
:1028000011F0E501F3CFEDE2CE1208C07E01F2E057
:10281000EF0EF11CC980DD24D39409C02BE2C21253
:1028200005C07E0142E0E40EF11CC980D12CE70115
:10283000219743E050E068E371E0CE010AD2892B92
:10284000B9F4239645E050E063E371E0CE0101D294
:10285000892B09F425960115110519F0D801CD939E
:10286000DC93D11000C160E070E080E89FE704C114
:1028700043E050E060E371E0CE01EBD1892B59F4E5
:102880000115110509F4F4C0B2E0EB0EF11CF801DA
:10289000F182E082EDC0F70160E070E0CB01C0E0C2
:1028A000D0E07F01A0EDAA2EAC0C29E02A1528F17A
:1028B0004D2D4260B42E2D2D2870D2FE04C0211162
:1028C00024C0219622C021112197A5E0B0E09B01F0
:1028D000AC01EAD1660F771F881F991F6A0D711D21
:1028E000811D911D6839A9E97A078A07A9E19A072C
:1028F00060F0BD2DB660BB2E08C02EEFA2120AC03C
:10290000D3FC50C04D2D4860B42E3196D701CC90E9
:10291000DB2CC7CF2C2D2F7D253409F043C0A0819F
:10292000AD3241F4BD2DB061DB2E7F0122E0E20E1D
:10293000F11C0CC07F01AB3231F04FEFE41AF40A06
:1029400021E030E006C0A2E0EA0EF11CA18122E005
:1029500030E0A053AA3018F0E21AF30A23C0F701BE
:1029600020E030E02038BCE03B075CF4A901440FD4
:10297000551F440F551F240F351F220F331F2A0FD9
:10298000311DAF014F5F5F4F7A01A081A053AA3084
:1029900010F4FA01E7CFD4FE03C031952195310937
:1029A000C20FD31FD1FE09C00115110531F0E1E0BE
:1029B000EE1AF108D801ED92FC92B8DA2D2D2370B1
:1029C000233019F04B015C0106C04B015C01B7FAE2
:1029D000B094B7F8B09420E030E0A901C501B4018B
:1029E00005DA882309F43CC0D7FF06C0D195C1950C
:1029F000D1090FE411E002C007E611E06801B8E177
:102A0000CB1AD10890E2E92EF12CCE15DF056CF03F
:102A1000F8012591359145915491C501B401F4DB3C
:102A20004B015C01CE19DF09F0CF04501109F59478
:102A3000E7940C151D0549F78A2D880F8B2D881FEB
:102A40008F3F41F020E030E0A901C501B401CED9AB
:102A5000811106C082E290E090935506809354065F
:102A6000C501B40109C060E070E080E89FEF04C0D8
:102A700060E070E080EC9FE7DF91CF911F910F91B4
:102A8000FF90EF90DF90CF90BF90AF909F908F908E
:102A90000895283008F027E03327DA01990F311D17
:102AA00087FD916000966105710539F432602E5FF3
:102AB0003D9330E32A95E1F708959F3F30F0803849
:102AC0007105610509F03C5F3C5F3D93913008F072
:102AD0008068911DDF93CF931F930F93FF92EF9226
:102AE000192F987F9695E92F96959695E90FFF27D0
:102AF000EB53FE4F99273327EE24FF24A701E7016C
:102B000005900894079428F4360FE71EF81E491F15
:102B1000511D660F771F881F991F0694A1F7059016
:102B2000079428F4E70EF81E491F561FC11D770FA2
:102B3000881F991F661F0694A1F70590079428F433
:102B4000F80E491F561FC71FD11D880F991F661FFA
:102B5000771F0694A1F70590079420F4490F561F9C
:102B6000C71FD81F990F661F771F881F0694A9F7E4
:102B700084911095177041F0D695C7955795479554
:102B8000F794E7941A95C1F7EBE6F1E06894159095
:102B9000159135916591959105907FE27395E118B6
:102BA000F10A430B560BC90BD009C0F7E10CF11E1B
:102BB000431F561FC91FD01D7EF4703311F48A9530
:102BC000E6CFE894015030F0080F0AF4002702170E
:102BD00008F4202F2395022F7A3328F079E37D9390
:102BE0002A95E9F710C07D932A9589F60694979562
:102BF0006795379517951794E118F10A430B560B13
:102C0000C90BD00998F023957E9173957A3308F01B
:102C100070E37C932013B8F77E9170617D9330F060
:102C2000839571E37D9370E32A95E1F71124EF908A
:102C3000FF900F911F91CF91DF91992787FD90957C
:102C4000089591112EC0803219F089508550D0F727
:102C50000895FB01DC014150504088F08D91813492
:102C60001CF08B350CF4805E659161341CF06B3583
:102C70000CF4605E861B611171F3990B0895881B3B
:102C8000FCCFDC01FC01672F71917723E1F73297CC
:102C900004C07C916D9370836291AE17BF07C8F337
:102CA000089599278827089509D0A59F900DB49F6E
:102CB000900DA49F800D911D11240895A29FB00135
:102CC000B39FC001A39F700D811D1124911DB29F60
:0E2CD000700D811D1124911D0895F894FFCF01
:102CDE0000007544008089440A24ED0479058605B8
:102CEE0044657465726D696E696E6720416C7469B6
:102CFE006D657465722053746172742068656967BE
:102D0E0068742C2073616D706C696E6720666F72CB
:102D1E002032732E2E2E005374617274696E6720EA
:102D2E0068656967687420696E697469616C697336
:102D3E00656420746F3A2000206D00416C74696DDB
:102D4E006574657220636F6E6E656374656420636F
:102D5E006F72726563746C792100416C74696D6574
:102D6E00746572206E6F7420636F6E6E656374652A
:102D7E00642100416C74696D6574657220696E69B9
:102D8E007469616C6973656420636F7272656374D4
:102D9E006C792100416C74696D6574657220666191
:102DAE00696C656420746F20696E697469616C6901
:102DBE00736521000A0D00475047474100475047B1
:102DCE0047412048656164657220666F756E642C9C
:102DDE002072656164696E6720646174612E2E2EA7
:102DEE00004750532076616C75657320736176656C
:102DFE0064210047505320496E69742E2E2E0057C1
:102E0E00616974696E6720666F7220736174656C98
:102E1E006C697465732E2E2E2800290046696E6922
:102E2E00736865640056616C6964207369676E61CE
:102E3E006C00496E76616C6964207369676E616CB3
:102E4E0000537461727420506F736974696F6E20D1
:102E5E0069733A2000506C6561736520656E746508
:102E6E0072204C617469747564652000506C6561E4
:102E7E00736520656E746572204C6F6E676974752C
:102E8E0064652000576F756C6420796F75206C69CE
:102E9E006B6520746F20656E74657220616E6F7441
:102EAE006865722077617920706F696E743F202893
:102EBE0079206F72206E293A0046696E69736865D3
:102ECE006420656E746572696E6720776179207013
:102EDE006F696E747300496E76616C69642C207034
:102EEE006C656173652074727920616761696E002B
:102EFE003D3D3D3D3D3D3D3D3D3D3D3D3D3D3D3DF4
:102F0E003D3D3D3D3D3D3D3D3D0020202000456E7B
:102F1E00642053756D6D6172790047656E657261DF
:102F2E0074696E6720636972636C65206F662077C3
:102F3E006179706F696E74732061726F756E642043
:102F4E0063656E746572206C617469747564652056
:102F5E00002C206C6F6E67697475646520002C20E0
:102F6E0000426567696E696E6E696E6720496E69AB
:102F7E007469616C69736174696F6E2E2E2E0049CF
:102F8E006E697469616C697A6174696F6E207375AC
:0E2F9E0063636565646564210048002C0000D3
:00000001FF
