:1000000005C1000023C1000021C100001FC1000084
:100010001DC100001BC1000019C1000017C1000074
:1000200015C1000095C3000011C100000FC1000000
:100030000DC100000BC1000009C1000007C1000094
:1000400005C1000003C1000001C10000FFC00000A5
:10005000FDC00000FBC00000F9C0000079C4000032
:10006000F5C00000F3C00000F1C00000EFC00000C8
:10007000EDC00000EBC00000E9C00000E7C00000D8
:10008000E5C00000E3C00000E1C00000DFC00000E8
:10009000DDC00000DBC00000D9C00000D7C00000F8
:1000A000D5C00000D3C00000D1C00000CFC0000008
:1000B000CDC00000CBC00000C9C00000C7C0000018
:1000C000C5C00000C3C00000C1C00000BFC0000028
:1000D000BDC00000BBC00000B9C00000B7C0000038
:1000E000B5C00000084AD73B3BCE016E84BCBFFDC3
:1000F000C12F3D6C74319ABD56833DDA3D00C77FF8
:1001000011BED9E4BB4C3E916BAAAABE0000008090
:100110003F0000407A10F35A00A0724E18090010F8
:10012000A5D4E80000E87648170000E40B5402006C
:1001300000CA9A3B000000E1F50500008096980097
:10014000000040420F000000A086010000001027C0
:1001500000000000E8030000000064000000000050
:100160000A00000000000100000000002C76D88882
:10017000DC674F0823DFC1DFAE59E1B1B796E5E395
:10018000E453C63AE651997696E8E6C28426EB89AE
:100190008C9B62ED407C6FFCEFBC9C9F40F2BAA54B
:1001A0006FA5F490055A2AF75C936B6CF9676DC1E3
:1001B0001BFCE0E40D47FEF520E6B500D0ED902EE7
:1001C0000300943577050080841E080000204E0A45
:1001D000000000C80C333333330F986E1283114183
:1001E000EF8D2114893BE65516CFFEE6DB18D1844E
:1001F0004B381BF77C1D901DA4BBE4242032847275
:100200005E228100C9F124ECA1E53D2711241FBE27
:10021000CFEFD1E2DEBFCDBF00E00CBF12E0A0E027
:10022000B2E0E0E2F6E100E00BBF02C007900D9201
:10023000A637B107D9F722E0A6E7B2E001C01D92C8
:10024000A33BB207E1F7CCD40C940E0BD9CE00C07F
:1002500000C000C000C000C000C000000895519858
:100260005098599858980895519AF1DF1DC00895F3
:10027000509AEDDF5198EBDF5098E9DF519AE7DFB4
:1002800013C00895082E519AE2DF802D0DD08823E7
:1002900011F002D0F8CF0895509A519AD8DF5098B3
:1002A000D6DF5198D4CF08950894881F01C0880FD5
:1002B00059F0509A18F40000519802C0519A00C0A9
:1002C000C6DF5098C4DFF3CF509A5198C0DF5098E2
:1002D000489BFECF8827499981E0B9DF9927089587
:1002E000882701C081E071E0509A5198B0DF5098A2
:1002F000AEDF489BFECF889449990894771FA0F7FA
:10030000509A813011F0519801C0519AA0DF509855
:10031000489BFECF9CDF872F992708958CE3A4DFAD
:1003200080E0C2DF80E7C0DFB7DF8CE39DDF81E0E4
:10033000BBDF80EAB9DFB0DF8CE396DF82E0B4DFB9
:1003400080E0B2DFA9CF08958F929F92AF92BF92C3
:10035000CF92DF92EF92FF928CE394DF83E0A4DFF1
:100360009BDF8DE385DFBEDF10927E0280937F02EC
:10037000B9DF20917E0230917F02282B30937F02DB
:1003800020937E02AFDF10927A0280937B02AADF75
:1003900020917A0230917B02282B30937B022093AC
:1003A0007A02A0DF10927C0280937D0299DF209177
:1003B0007C0230917D02A901482BCA0190937D02F5
:1003C00080937C0260917E0270917F0220910402F2
:1003D00030910502621B730B409106025091070297
:1003E000649F9001659F300D749F300D11243093F0
:1003F0007902209378022091000230910102821B41
:10040000930B4091020250910302849F9001859FBB
:10041000300D949F300D1124309377022093760293
:100420003BDF6091780270917902882777FD809593
:10043000982F17D56B017C0160917602709177023D
:10044000882777FD8095982F0CD5A701960148D471
:100450006B017C0125E33AEF4EE05EE3CED34B0126
:100460005C0120E030E0A901C701B6018CD48823EB
:100470004CF42BED3FE049EC50E4C701B601BDD38D
:100480006B017C012BED3FE049EC50E4C701B60164
:10049000BDD518164CF42BED3FE049EC50E4C701F4
:1004A000B601AAD36B017C0120E030E0A901C501AF
:1004B000B40169D488234CF42BED3FE049EC50E4BF
:1004C000C501B4019AD34B015C012BED3FE049EC2F
:1004D00050E4C501B4019AD518164CF42BED3FE059
:1004E00049EC50E4C501B40187D34B015C0188E0BD
:1004F00092E067D060917E0270917F02882777FD3D
:100500008095982FAED46CD080E192E05AD0C7018C
:10051000B60166D086E292E054D020E030E044E3B9
:1005200053E4C701B6017DD52BED3FE049E450E42B
:100530002ED456D08CE392E044D020E030E044E367
:1005400053E4C501B4016DD52BED3FE049E450E41F
:100550001ED446D08AE592E039D060917E02709137
:100560007F02882777FD8095982F7BD46B017C01D3
:1005700060917C0270917D02882777FD8095982F8D
:1005800070D4A7019601ACD320E030E044E353E4FB
:1005900048D52BED3FE049E450E4F9D320E030E0CA
:1005A00044E353E42AD325E33AEF4EE05EE325D358
:1005B000FF90EF90DF90CF90BF90AF909F908F9083
:1005C0000895BC0180E090E0BFC20895BC0180E0C6
:1005D00090E0BAD268E572E080E090E0B5C208959C
:1005E0000F931F93CF93DF93CDB7DEB764970FB60A
:1005F000F894DEBF0FBECDBF8E010F5F1F4F25E009
:100600004AE097D5C801DDDF64960FB6F894DEBFE7
:100610000FBECDBFDF91CF911F910F9108952F9AFB
:100620002FEF80E792E0215080409040E1F700C03A
:1006300000002F9808952F9A2FEF84E39CE021501B
:1006400080409040E1F700C000002F9808959093FB
:10065000A9008093A800BC01882777FD8095982F7A
:1006600000D4609380027093810280938202909301
:10067000830208958F929F92AF92BF92CF92DF92A2
:10068000EF92FF920F931F93CF93DF938FEF80939F
:1006900001018DB98FE39CE99093A7008093A60098
:1006A00038EA3093A00022E12093A10090939700B4
:1006B000809396003093900020939100C6EBD3E096
:1006C000D093A900C093A8000F2EFAEA8F2E912C88
:1006D000F02DF401D183C0830F2EFCEAAF2EB12C94
:1006E000F02DF501D183C0830F2EF8E9CF2ED12C48
:1006F000F02DF601D183C0830F2EFAE9EF2EF12CF5
:10070000F02DF701D183C0830CE910E0F801D1830B
:10071000C08386EB93E09BDFF401D183C083F501B6
:10072000D183C083F601D183C083F701D183C08315
:10073000F801D183C083DF91CF911F910F91FF907A
:10074000EF90DF90CF90BF90AF909F908F900895E3
:100750001F920F920FB60F9211240BB60F922F9388
:100760003F934F935F936F937F938F939F93AF9339
:10077000BF93CF93EF93FF9383B1C0918402C827B7
:1007800083B180938402C0FF1CC0189B0AC02AD189
:100790006093990270939A0280939B0290939C02BB
:1007A00010C020D12091990230919A02621B730BE4
:1007B0007093A9026093A80280919D02816080934A
:1007C0009D02C1FF1CC0199B0AC00CD16093950209
:1007D00070939602809397029093980210C002D172
:1007E0002091950230919602621B730B7093A702C1
:1007F0006093A60280919D02826080939D02C2FF59
:100800001CC01A9B0AC0EED06093910270939202B2
:10081000809393029093940210C0E4D020919102AF
:1008200030919202621B730B7093A5026093A40235
:1008300080919D02846080939D02C3FF1CC01B9B1E
:100840000AC0D0D060938D0270938E0280938F0285
:100850009093900210C0C6D020918D0230918E02EC
:10086000621B730B7093A3026093A20280919D029E
:10087000886080939D02C4FF1CC01C9B0AC0B2D03C
:100880006093890270938A0280938B0290938C020A
:1008900010C0A8D02091890230918A02621B730B8C
:1008A0007093A1026093A00280919D028061809369
:1008B0009D02C5FF1CC01D9B0AC094D06093850299
:1008C00070938602809387029093880210C08AD02A
:1008D0002091850230918602621B730B70939F02F8
:1008E00060939E0280919D02806280939D02FF91A1
:1008F000EF91CF91BF91AF919F918F917F916F9128
:100900005F914F913F912F910F900BBE0F900FBEB3
:100910000F901F90189514B8279AEBE6F0E08081AD
:100920008160808380818260808380818460808315
:100930008081886080838081806180838081806203
:100940008083E8E6F0E08081816080837894089578
:100950001F920F920FB60F9211242F933F938F93F4
:100960009F93AF93BF938091AB029091AC02A09103
:10097000AD02B091AE023091AA0223E0230F2D37D1
:1009800020F40196A11DB11D05C026E8230F029693
:10099000A11DB11D2093AA028093AB029093AC02DB
:1009A000A093AD02B093AE028091AF029091B002DD
:1009B000A091B102B091B2020196A11DB11D809328
:1009C000AF029093B002A093B102B093B202BF9174
:1009D000AF919F918F913F912F910F900FBE0F90EC
:1009E0001F9018953FB7F8948091AF029091B00294
:1009F000A091B102B091B20226B5A89B02C02F3FD0
:100A0000A9F43FBF7894BA2FA92F982F8827820F77
:100A1000911DA11DB11DBC01CD01660F771F881F5F
:100A2000991F660F771F881F991F08950196A11DB2
:100A3000B11DE7CF81E080936E0016BC83E085BDD9
:100A40000895CF93DF93EC01CB01AA2797FDA095E2
:100A5000BA2F880F991FAA1FBB1F880F991FAA1FA3
:100A6000BB1F9C01AD01220F331F441F551F220FD6
:100A7000331F441F551F60E074E284EF90E037D3CA
:100A800021503109209759F43093C5002093C400B8
:100A900088E18093C10086E08093C20028C0C13005
:100AA000D10559F43093CD002093CC0088E1809398
:100AB000C90086E08093CA001AC0C230D10559F43B
:100AC0003093D5002093D40088E18093D10086E054
:100AD0008093D2000CC0239751F4309335012093BA
:100AE000340188E18093310186E080933201DF9107
:100AF000CF910895009741F4E0ECF0E0808185FF0C
:100B0000FDCF6093C60008958130910541F4E8EC73
:100B1000F0E0808185FFFDCF6093CE0008958230A4
:100B2000910541F4E0EDF0E0808185FFFDCF609319
:100B3000D6000895039739F4E0E3F1E0808185FF62
:100B4000FDCF6093360108950F931F93CF93DF93EA
:100B50008C01EB016881662331F02196C801CADF60
:100B600069916111FBCFDF91CF911F910F91089592
:100B700060E875E280E090E064DF5CDFCCDE7ADD87
:100B80006EDBCCDB8BE592E021DD55DD2FEF84E3DE
:100B90009CE0215080409040E1F700C000003FDD24
:100BA0002FEF84E39CE0215080409040E1F700C0AB
:100BB000000035DD2FEF84E39CE021508040904021
:100BC000E1F700C000002BDD2FEF84E39CE0215013
:100BD00080409040E1F700C000002DDD81E00895E5
:100BE000C7DF2FEF89E698E1215080409040E1F780
:100BF00000C00000A9DBF5CF5058BB27AA270ED0B4
:100C0000CBC1BCD130F0C1D120F031F49F3F11F401
:100C10001EF48CC10EF4E095E7FB82C1E92FCDD123
:100C200080F3BA17620773078407950718F071F409
:100C30009EF5E5C10EF4E0950B2EBA2FA02D0B0109
:100C4000B90190010C01CA01A0011124FF27591B11
:100C500099F0593F50F4503E68F11A16F040A22F17
:100C6000232F342F4427585FF3CF46953795279588
:100C7000A795F0405395C9F77EF41F16BA0B620B87
:100C8000730B840BBAF09150A1F0FF0FBB1F661FCE
:100C9000771F881FC2F70EC0BA0F621F731F841F11
:100CA00048F4879577956795B795F7959E3F08F037
:100CB000B3CF9395880F08F09927EE0F97958795F6
:100CC00008955CD158F080E891E009F49EEF5DD181
:100CD00028F040E851E059F45EEF09C027C18FC108
:100CE000E92FE0786AD168F3092E052AC1F32617A7
:100CF00037074807590738F00E2E07F8E02569F046
:100D0000E025E0640AC0EF6307F8009407FADB010E
:100D1000B9019D01DC01CA01AD01EF9347D03CD17F
:100D20000AD05F91552331F02BED3FE049E450FDAF
:100D300049EC63CF0895DF93DD27B92FBF7740E8F3
:100D40005FE31616170648075B0710F4D92F62D128
:100D50009F938F937F936F93C7D1E4EEF0E0E9D038
:100D60001BD12F913F914F915F9167D1DD2349F0C6
:100D70009058A2EA2AED3FE049EC5FE3D0785D2786
:100D80004DDFDF9109C1A8D008F481E008950CD0AF
:100D900003C1FBD040F0F2D030F021F45F3F19F0F6
:100DA000BFC051112DC1C2C008D198F39923C9F316
:100DB0005523B1F3951B550BBB27AA276217730761
:100DC000840738F09F5F5F4F220F331F441FAA1F15
:100DD000A9F333D00E2E3AF0E0E830D091505040D5
:100DE000E695001CCAF729D0FE2F27D0660F771F83
:100DF000881FBB1F261737074807AB07B0E809F065
:100E0000BB0B802DBF01FF2793585F4F2AF09E3FF9
:100E1000510568F085C0F4C05F3FECF3983EDCF309
:100E2000869577956795B795F7959F5FC9F7880F72
:100E3000911D9695879597F90895E1E0660F771FC4
:100E4000881FBB1F621773078407BA0720F0621B55
:100E5000730B840BBA0BEE1F88F7E0950895E894A6
:100E600009C097FB3EF490958095709561957F4FF2
:100E70008F4F9F4F9923A9F0F92F96E9BB279395A0
:100E8000F695879577956795B795F111F8CFFAF4B0
:100E9000BB0F11F460FF1BC06F5F7F4F8F4F9F4FE1
:100EA00016C0882311F096E911C0772321F09EE83F
:100EB000872F762F05C0662371F096E8862F70E0A5
:100EC00060E02AF09A95660F771F881FDAF7880F7F
:100ED0009695879597F90895990F0008550FAA0BD5
:100EE000E0E8FEEF16161706E807F907C0F012163D
:100EF0001306E407F50798F0621B730B840B950B40
:100F000039F40A2661F0232B242B252B21F4089594
:100F10000A2609F4A140A6958FEF811D811D089531
:100F200097F99F6780E870E060E008959FEF80EC9C
:100F30000895DF93CF931F930F93FF92EF92DF9269
:100F40007B018C01689405C0DA2EEF0176D0FE019A
:100F5000E894A5912591359145915591AEF3EF0116
:100F60005DDEFE019701A801DA9479F7DF90EF903A
:100F7000FF900F911F91CF91DF91089500240A9463
:100F80001616170618060906089500240A94121664
:100F90001306140605060895092E0394000C11F497
:100FA000882352F0BB0F40F4BF2B11F460FF04C044
:100FB0006F5F7F4F8F4F9F4F089557FD9058440F9D
:100FC000551F59F05F3F71F04795880F97FB991FA8
:100FD00061F09F3F79F08795089512161306140665
:100FE000551FF2CF4695F1DF08C0161617061806F2
:100FF000991FF1CF86957105610508940895E894CD
:10100000BB2766277727CB0197F9089565DF08F49A
:101010008FEF08959B01AC0160E070E080E89FE3F2
:10102000B6CE0BD0B9CFAADF28F0AFDF18F09523EA
:1010300009F076CF7BCF1124E3CFBFDFA0F3959FDC
:10104000D1F3950F50E0551F629FF001729FBB27AF
:10105000F00DB11D639FAA27F00DB11DAA1F649F5B
:101060006627B00DA11D661F829F2227B00DA11D0E
:10107000621F739FB00DA11D621F839FA00D611D94
:10108000221F749F3327A00D611D231F849F600DB5
:10109000211D822F762F6A2F11249F5750408AF0EE
:1010A000E1F088234AF0EE0FFF1FBB1F661F771F7A
:1010B000881F91505040A9F79E3F510570F030CFE6
:1010C0009FCF5F3FECF3983EDCF38695779567956D
:1010D000B795F795E7959F5FC1F7FE2B880F911D98
:1010E0009695879597F908959B01AC019ACFA1E257
:1010F0001A2EAA1BBB1BFD010DC0AA1FBB1FEE1F92
:10110000FF1FA217B307E407F50720F0A21BB30BDC
:10111000E40BF50B661F771F881F991F1A9469F758
:1011200060957095809590959B01AC01BD01CF01B4
:101130000895EF920F931F93CF93DF93E80147FF3A
:1011400002C034E101C034E0E42FFF27E7FDF09551
:10115000F7FF03C0F195E195F109E32E022F2E2F41
:10116000AE0107D0CE01DF91CF911F910F91EF908B
:1011700008956F927F929F92AF92BF92CF92DF922B
:10118000EF92FF920F931F93CF93DF93CDB7DEB70C
:1011900029970FB6F894DEBF0FBECDBF6A01B22EFD
:1011A000102F0C3320F4FF24F394F00E02C04CE314
:1011B000F42E0F2D27E0AE014F5F5F4F57D179819D
:1011C000272F2970213031F0E1FC06C0E0FC06C079
:1011D00060E005C06DE203C06BE201C060E2AE2DCD
:1011E000A07173FF36C0662311F084E001C083E074
:1011F0008B1510F4B81A01C0B12CA1110BC0F60167
:101200008B2D90E2882319F091938150FBCFCB0C6A
:10121000D11CB12C662331F0F601608396012F5F5B
:101220003F4F6901C6010396E2FE05C02EE4F601B8
:10123000208331E404C02EE6F601208331E63183B9
:101240002283FC012B2D30E22223F1F13193215036
:10125000FBCF72FF40C0662311F084E001C083E041
:101260008B1510F4B81A01C0B12CA1110BC0F601F6
:101270008B2D90E2882319F091938150FBCFCB0CFA
:10128000D11CB12C662331F0F601608396012F5FEB
:101290003F4F6901C6010396E2FE07C029E4F6014B
:1012A00020832EE4218326E406C029E6F60120836C
:1012B0002EE6218326E62283FC012B2D30E2222319
:1012C00019F031932150FBCFFC01EB0DF11D108281
:1012D0008EEF9FEFB7C0B1E0611101C0B0E04B2FBE
:1012E00050E01816190624F49C012F5F3F4F02C0EE
:1012F00021E030E0240F351F112329F0412F50E069
:101300004F5F5F4F02C040E050E0420F531F2B2D54
:1013100030E04217530714F4B41A01C0B12C2E2D3B
:10132000287159F4F6012B2D30E2222319F0319364
:101330002150FBCFCB0CD11CB12CBB2331F0F601DB
:10134000608396012F5F3F4F6901A1110BC0F60129
:101350002B2D30E3222319F031932150FBCFCB0CFE
:10136000D11CB12CF80E0A81372F3071A32E74FFD7
:1013700003C0013309F4FA941F142CF42F2D2930E3
:1013800018F028E001C021E0682F392F97FF02C034
:1013900060E030E0462F532F612C712C3EE2932EFB
:1013A000BC01621B71099B01DC01A41BB50BE1E0D0
:1013B000F0E0EC0FFD1FAE0FBF1FE12EF12CF194FA
:1013C000E194F1084F3FFFEF5F0731F4F60190829F
:1013D000B6016F5F7F4F6B01841795074CF02417A0
:1013E000350734F4BD01660D771DFB01118101C085
:1013F00010E341505109FFEF6F1A7F0AB6016F5F8A
:101400007F4F4E155F0524F0F60110836B01DACF94
:101410004817590739F4063320F4053319F4A1109D
:1014200001C011E3F6011083FB018B2D90E28823AC
:1014300019F091938150FBCFFB01EB0DF11D108250
:1014400080E090E029960FB6F894DEBF0FBECDBFC6
:10145000DF91CF911F910F91FF90EF90DF90CF9090
:10146000BF90AF909F907F906F900895283008F0C4
:1014700027E03327DA01990F311D87FD916000962F
:101480006105710539F432602E5F3D9330E32A9592
:10149000E1F708959F3F30F080387105610509F04C
:1014A0003C5F3C5F3D93913008F08068911DDF9375
:1014B000CF931F930F93FF92EF92192F987F9695DA
:1014C000E92F96959695E90FFF27E459FE4F992746
:1014D0003327EE24FF24A701E70105900894079421
:1014E00028F4360FE71EF81E491F511D660F771F9F
:1014F000881F991F0694A1F70590079428F4E70E1A
:10150000F81E491F561FC11D770F881F991F661FA0
:101510000694A1F70590079428F4F80E491F561F6A
:10152000C71FD11D880F991F661F771F0694A1F74B
:101530000590079420F4490F561FC71FD81F990F15
:10154000661F771F881F0694A9F78491109517705E
:1015500041F0D695C79557954795F794E7941A9516
:10156000C1F7E2E1F1E0689415901591359165912C
:10157000959105907FE27395E118F10A430B560BA4
:10158000C90BD009C0F7E10CF11E431F561FC91F3C
:10159000D01D7EF4703311F48A95E6CFE8940150A3
:1015A00030F0080F0AF40027021708F4202F2395C3
:1015B000022F7A3328F079E37D932A95E9F710C05A
:1015C0007D932A9589F60694979567953795179593
:1015D0001794E118F10A430B560BC90BD00998F088
:1015E00023957E9173957A3308F070E37C932013F2
:1015F000B8F77E9170617D9330F0839571E37D93B0
:1016000070E32A95E1F71124EF90FF900F911F915D
:10161000CF91DF91992787FD90950895F894FFCF9A
:1016200077FF01000D00010052617720783A200019
:10163000092048656164696E672028726164696188
:101640006E73293A2000092048656164696E67203D
:101650002864656772656573293A2000092048652A
:101660006164696E672028772F4465636C696E61D9
:1016700074696F6E293A20000A0D00496E69746919
:10168000616C697A6174696F6E20737563636565F7
:0616900064656421000006
:00000001FF
