:1000000071C0000081C000007FC000007DC0000002
:100010007BC0000079C0000077C0000075C0000000
:1000200073C000001EC100006FC000006DC0000062
:100030006BC0000069C0000067C0000065C0000020
:1000400063C0000061C000005FC000005DC0000030
:100050005BC0000059C0000057C0000056C000003F
:1000600053C0000051C000004FC000004DC0000050
:100070004BC0000049C0000047C0000045C0000060
:1000800043C0000041C000003FC000003DC0000070
:100090003BC0000039C0000037C0000035C0000080
:1000A00033C0000031C000002FC000002DC0000090
:1000B0002BC0000029C0000027C0000025C00000A0
:1000C00023C0000021C000001FC000001DC00000B0
:1000D0001BC0000019C0000017C0000015C00000C0
:1000E00013C0000011241FBECFEFD1E2DEBFCDBF91
:1000F00000E00CBF22E0A0E0B2E001C01D92A03100
:10010000B207E1F7F0D0F1C07BCF1F920F920FB68C
:100110000F9211242F933F938F939F93AF93BF938D
:100120008091080290910902A0910A02B0910B02FD
:100130003091070223E0230F2D3720F40196A11DF3
:10014000B11D05C026E8230F0296A11DB11D209305
:1001500007028093080290930902A0930A02B093C9
:100160000B0280910C0290910D02A0910E02B091B1
:100170000F020196A11DB11D80930C0290930D02F8
:10018000A0930E02B0930F02BF91AF919F918F91F8
:100190003F912F910F900FBE0F901F9018953FB772
:1001A000F89480910C0290910D02A0910E02B091F2
:1001B0000F0226B5A89B02C02F3FA1F43FBFBA2F64
:1001C000A92F982F8827820F911DA11DB11DBC0159
:1001D000CD01660F771F881F991F660F771F881F35
:1001E000991F08950196A11DB11DE8CFF89484B51B
:1001F000826084BD84B5816084BD85B5826085BD23
:1002000085B5816085BDEEE6F0E080818160808308
:10021000E1E8F0E08081826080838081816080837A
:10022000E0E8F0E0808181608083E1EBF0E08081B4
:1002300084608083E0EBF0E0808181608083EAE786
:10024000F0E080818460808380818260808380810F
:10025000816080838081806880831092C10078945F
:1002600008951F920F920FB60F9211240BB60F92A2
:100270002F933F934F935F936F937F938F939F93AE
:10028000AF93BF93EF93FF93189B0AC088DF6093EF
:10029000000270930102809302029093030210C047
:1002A0007EDF2091000230910102621B730B70937C
:1002B000060260930502809104028160809304022B
:1002C000FF91EF91BF91AF919F918F917F916F912E
:1002D0005F914F913F912F910F900BBE0F900FBEEA
:0E02E0000F901F90189582DFFFCFF894FFCF8C
:00000001FF
